{
	"MyTask/MyERC20Token.sol": {
		"TokenDeposit": {
			"abi": [
				{
					"inputs": [
						{
							"internalType": "address",
							"name": "",
							"type": "address"
						}
					],
					"name": "allTokens",
					"outputs": [
						{
							"internalType": "uint256",
							"name": "",
							"type": "uint256"
						}
					],
					"stateMutability": "view",
					"type": "function"
				},
				{
					"inputs": [
						{
							"internalType": "address",
							"name": "tokenAdd",
							"type": "address"
						},
						{
							"internalType": "uint256",
							"name": "_numberOfToken",
							"type": "uint256"
						}
					],
					"name": "publicDepositERC20",
					"outputs": [],
					"stateMutability": "nonpayable",
					"type": "function"
				},
				{
					"inputs": [
						{
							"internalType": "address",
							"name": "",
							"type": "address"
						}
					],
					"name": "slabs",
					"outputs": [
						{
							"internalType": "string",
							"name": "",
							"type": "string"
						}
					],
					"stateMutability": "view",
					"type": "function"
				}
			],
			"devdoc": {
				"kind": "dev",
				"methods": {},
				"version": 1
			},
			"evm": {
				"assembly": "    /* \"MyTask/MyERC20Token.sol\":127:1038  contract TokenDeposit{\r... */\n  mstore(0x40, 0x80)\n    /* \"MyTask/MyERC20Token.sol\":168:169  0 */\n  0x00\n    /* \"MyTask/MyERC20Token.sol\":155:169  uint count = 0 */\n  dup1\n  sstore\n    /* \"MyTask/MyERC20Token.sol\":127:1038  contract TokenDeposit{\r... */\n  callvalue\n  dup1\n  iszero\n  tag_1\n  jumpi\n  0x00\n  dup1\n  revert\ntag_1:\n  pop\n  dataSize(sub_0)\n  dup1\n  dataOffset(sub_0)\n  0x00\n  codecopy\n  0x00\n  return\nstop\n\nsub_0: assembly {\n        /* \"MyTask/MyERC20Token.sol\":127:1038  contract TokenDeposit{\r... */\n      mstore(0x40, 0x80)\n      callvalue\n      dup1\n      iszero\n      tag_1\n      jumpi\n      0x00\n      dup1\n      revert\n    tag_1:\n      pop\n      jumpi(tag_2, lt(calldatasize, 0x04))\n      shr(0xe0, calldataload(0x00))\n      dup1\n      0x0fc2b111\n      eq\n      tag_3\n      jumpi\n      dup1\n      0x1e54cb77\n      eq\n      tag_4\n      jumpi\n      dup1\n      0x95ded45c\n      eq\n      tag_5\n      jumpi\n    tag_2:\n      0x00\n      dup1\n      revert\n        /* \"MyTask/MyERC20Token.sol\":277:1035  function publicDepositERC20 (address tokenAdd, uint _numberOfToken) external\r... */\n    tag_3:\n      tag_6\n      0x04\n      dup1\n      calldatasize\n      sub\n      dup2\n      add\n      swap1\n      tag_7\n      swap2\n      swap1\n      tag_8\n      jump\t// in\n    tag_7:\n      tag_9\n      jump\t// in\n    tag_6:\n      stop\n        /* \"MyTask/MyERC20Token.sol\":228:268  mapping (address => string) public slabs */\n    tag_4:\n      tag_10\n      0x04\n      dup1\n      calldatasize\n      sub\n      dup2\n      add\n      swap1\n      tag_11\n      swap2\n      swap1\n      tag_12\n      jump\t// in\n    tag_11:\n      tag_13\n      jump\t// in\n    tag_10:\n      mload(0x40)\n      tag_14\n      swap2\n      swap1\n      tag_15\n      jump\t// in\n    tag_14:\n      mload(0x40)\n      dup1\n      swap2\n      sub\n      swap1\n      return\n        /* \"MyTask/MyERC20Token.sol\":176:221  mapping (address => uint256) public allTokens */\n    tag_5:\n      tag_16\n      0x04\n      dup1\n      calldatasize\n      sub\n      dup2\n      add\n      swap1\n      tag_17\n      swap2\n      swap1\n      tag_12\n      jump\t// in\n    tag_17:\n      tag_18\n      jump\t// in\n    tag_16:\n      mload(0x40)\n      tag_19\n      swap2\n      swap1\n      tag_20\n      jump\t// in\n    tag_19:\n      mload(0x40)\n      dup1\n      swap2\n      sub\n      swap1\n      return\n        /* \"MyTask/MyERC20Token.sol\":277:1035  function publicDepositERC20 (address tokenAdd, uint _numberOfToken) external\r... */\n    tag_9:\n        /* \"MyTask/MyERC20Token.sol\":369:378  bool flag */\n      0x00\n        /* \"MyTask/MyERC20Token.sol\":425:426  0 */\n      dup1\n        /* \"MyTask/MyERC20Token.sol\":402:411  allTokens */\n      0x01\n        /* \"MyTask/MyERC20Token.sol\":402:421  allTokens[tokenAdd] */\n      0x00\n        /* \"MyTask/MyERC20Token.sol\":412:420  tokenAdd */\n      dup6\n        /* \"MyTask/MyERC20Token.sol\":402:421  allTokens[tokenAdd] */\n      0xffffffffffffffffffffffffffffffffffffffff\n      and\n      0xffffffffffffffffffffffffffffffffffffffff\n      and\n      dup2\n      mstore\n      0x20\n      add\n      swap1\n      dup2\n      mstore\n      0x20\n      add\n      0x00\n      keccak256\n      sload\n        /* \"MyTask/MyERC20Token.sol\":402:426  allTokens[tokenAdd] == 0 */\n      eq\n        /* \"MyTask/MyERC20Token.sol\":399:497  if(allTokens[tokenAdd] == 0)\r... */\n      iszero\n      tag_22\n      jumpi\n        /* \"MyTask/MyERC20Token.sol\":452:457  count */\n      0x00\n      dup1\n        /* \"MyTask/MyERC20Token.sol\":452:459  count++ */\n      dup2\n      sload\n      dup1\n      swap3\n      swap2\n      swap1\n      tag_23\n      swap1\n      tag_24\n      jump\t// in\n    tag_23:\n      swap2\n      swap1\n      pop\n      sstore\n      pop\n        /* \"MyTask/MyERC20Token.sol\":481:485  true */\n      0x01\n        /* \"MyTask/MyERC20Token.sol\":474:485  flag = true */\n      swap1\n      pop\n        /* \"MyTask/MyERC20Token.sol\":399:497  if(allTokens[tokenAdd] == 0)\r... */\n    tag_22:\n        /* \"MyTask/MyERC20Token.sol\":507:525  uint _minimumToken */\n      0x00\n        /* \"MyTask/MyERC20Token.sol\":528:538  1*(10**18) */\n      0x0de0b6b3a7640000\n        /* \"MyTask/MyERC20Token.sol\":507:538  uint _minimumToken = 1*(10**18) */\n      swap1\n      pop\n        /* \"MyTask/MyERC20Token.sol\":574:587  _minimumToken */\n      dup1\n        /* \"MyTask/MyERC20Token.sol\":557:571  _numberOfToken */\n      dup4\n        /* \"MyTask/MyERC20Token.sol\":557:587  _numberOfToken > _minimumToken */\n      gt\n        /* \"MyTask/MyERC20Token.sol\":549:588  require(_numberOfToken > _minimumToken) */\n      tag_25\n      jumpi\n      0x00\n      dup1\n      revert\n    tag_25:\n        /* \"MyTask/MyERC20Token.sol\":606:614  tokenAdd */\n      dup4\n        /* \"MyTask/MyERC20Token.sol\":599:628  IERC20(tokenAdd).transferFrom */\n      0xffffffffffffffffffffffffffffffffffffffff\n      and\n      0x23b872dd\n        /* \"MyTask/MyERC20Token.sol\":629:639  msg.sender */\n      caller\n        /* \"MyTask/MyERC20Token.sol\":648:652  this */\n      address\n        /* \"MyTask/MyERC20Token.sol\":654:668  _numberOfToken */\n      dup7\n        /* \"MyTask/MyERC20Token.sol\":599:669  IERC20(tokenAdd).transferFrom(msg.sender,address(this),_numberOfToken) */\n      mload(0x40)\n      dup5\n      0xffffffff\n      and\n      0xe0\n      shl\n      dup2\n      mstore\n      0x04\n      add\n      tag_26\n      swap4\n      swap3\n      swap2\n      swap1\n      tag_27\n      jump\t// in\n    tag_26:\n      0x20\n      mload(0x40)\n      dup1\n      dup4\n      sub\n      dup2\n      0x00\n      dup8\n      dup1\n      extcodesize\n      iszero\n      dup1\n      iszero\n      tag_28\n      jumpi\n      0x00\n      dup1\n      revert\n    tag_28:\n      pop\n      gas\n      call\n      iszero\n      dup1\n      iszero\n      tag_30\n      jumpi\n      returndatasize\n      0x00\n      dup1\n      returndatacopy\n      revert(0x00, returndatasize)\n    tag_30:\n      pop\n      pop\n      pop\n      pop\n      mload(0x40)\n      returndatasize\n      not(0x1f)\n      0x1f\n      dup3\n      add\n      and\n      dup3\n      add\n      dup1\n      0x40\n      mstore\n      pop\n      dup2\n      add\n      swap1\n      tag_31\n      swap2\n      swap1\n      tag_32\n      jump\t// in\n    tag_31:\n      pop\n        /* \"MyTask/MyERC20Token.sol\":703:717  _numberOfToken */\n      dup3\n        /* \"MyTask/MyERC20Token.sol\":680:689  allTokens */\n      0x01\n        /* \"MyTask/MyERC20Token.sol\":680:699  allTokens[tokenAdd] */\n      0x00\n        /* \"MyTask/MyERC20Token.sol\":690:698  tokenAdd */\n      dup7\n        /* \"MyTask/MyERC20Token.sol\":680:699  allTokens[tokenAdd] */\n      0xffffffffffffffffffffffffffffffffffffffff\n      and\n      0xffffffffffffffffffffffffffffffffffffffff\n      and\n      dup2\n      mstore\n      0x20\n      add\n      swap1\n      dup2\n      mstore\n      0x20\n      add\n      0x00\n      keccak256\n      0x00\n        /* \"MyTask/MyERC20Token.sol\":680:717  allTokens[tokenAdd] += _numberOfToken */\n      dup3\n      dup3\n      sload\n      tag_33\n      swap2\n      swap1\n      tag_34\n      jump\t// in\n    tag_33:\n      swap3\n      pop\n      pop\n      dup2\n      swap1\n      sstore\n      pop\n        /* \"MyTask/MyERC20Token.sol\":733:737  flag */\n      dup2\n        /* \"MyTask/MyERC20Token.sol\":730:1029  if(flag)\r... */\n      iszero\n      tag_35\n      jumpi\n        /* \"MyTask/MyERC20Token.sol\":773:776  100 */\n      0x64\n        /* \"MyTask/MyERC20Token.sol\":764:769  count */\n      sload(0x00)\n        /* \"MyTask/MyERC20Token.sol\":764:776  count <= 100 */\n      gt\n        /* \"MyTask/MyERC20Token.sol\":761:1017  if(count <= 100){\r... */\n      tag_36\n      jumpi\n        /* \"MyTask/MyERC20Token.sol\":795:818  slabs[tokenAdd]=\"slab0\" */\n      mload(0x40)\n      dup1\n      0x40\n      add\n      0x40\n      mstore\n      dup1\n      0x05\n      dup2\n      mstore\n      0x20\n      add\n      0x736c616230000000000000000000000000000000000000000000000000000000\n      dup2\n      mstore\n      pop\n        /* \"MyTask/MyERC20Token.sol\":795:800  slabs */\n      0x02\n        /* \"MyTask/MyERC20Token.sol\":795:810  slabs[tokenAdd] */\n      0x00\n        /* \"MyTask/MyERC20Token.sol\":801:809  tokenAdd */\n      dup7\n        /* \"MyTask/MyERC20Token.sol\":795:810  slabs[tokenAdd] */\n      0xffffffffffffffffffffffffffffffffffffffff\n      and\n      0xffffffffffffffffffffffffffffffffffffffff\n      and\n      dup2\n      mstore\n      0x20\n      add\n      swap1\n      dup2\n      mstore\n      0x20\n      add\n      0x00\n      keccak256\n        /* \"MyTask/MyERC20Token.sol\":795:818  slabs[tokenAdd]=\"slab0\" */\n      swap1\n      dup1\n      mload\n      swap1\n      0x20\n      add\n      swap1\n      tag_37\n      swap3\n      swap2\n      swap1\n      tag_38\n      jump\t// in\n    tag_37:\n      pop\n        /* \"MyTask/MyERC20Token.sol\":761:1017  if(count <= 100){\r... */\n      jump(tag_39)\n    tag_36:\n        /* \"MyTask/MyERC20Token.sol\":849:852  100 */\n      0x64\n        /* \"MyTask/MyERC20Token.sol\":841:846  count */\n      sload(0x00)\n        /* \"MyTask/MyERC20Token.sol\":841:852  count > 100 */\n      gt\n        /* \"MyTask/MyERC20Token.sol\":841:868  count > 100 && count <= 300 */\n      dup1\n      iszero\n      tag_40\n      jumpi\n      pop\n        /* \"MyTask/MyERC20Token.sol\":865:868  300 */\n      0x012c\n        /* \"MyTask/MyERC20Token.sol\":856:861  count */\n      sload(0x00)\n        /* \"MyTask/MyERC20Token.sol\":856:868  count <= 300 */\n      gt\n      iszero\n        /* \"MyTask/MyERC20Token.sol\":841:868  count > 100 && count <= 300 */\n    tag_40:\n        /* \"MyTask/MyERC20Token.sol\":838:1017  if(count > 100 && count <= 300){\r... */\n      iszero\n      tag_41\n      jumpi\n        /* \"MyTask/MyERC20Token.sol\":887:910  slabs[tokenAdd]=\"slab1\" */\n      mload(0x40)\n      dup1\n      0x40\n      add\n      0x40\n      mstore\n      dup1\n      0x05\n      dup2\n      mstore\n      0x20\n      add\n      0x736c616231000000000000000000000000000000000000000000000000000000\n      dup2\n      mstore\n      pop\n        /* \"MyTask/MyERC20Token.sol\":887:892  slabs */\n      0x02\n        /* \"MyTask/MyERC20Token.sol\":887:902  slabs[tokenAdd] */\n      0x00\n        /* \"MyTask/MyERC20Token.sol\":893:901  tokenAdd */\n      dup7\n        /* \"MyTask/MyERC20Token.sol\":887:902  slabs[tokenAdd] */\n      0xffffffffffffffffffffffffffffffffffffffff\n      and\n      0xffffffffffffffffffffffffffffffffffffffff\n      and\n      dup2\n      mstore\n      0x20\n      add\n      swap1\n      dup2\n      mstore\n      0x20\n      add\n      0x00\n      keccak256\n        /* \"MyTask/MyERC20Token.sol\":887:910  slabs[tokenAdd]=\"slab1\" */\n      swap1\n      dup1\n      mload\n      swap1\n      0x20\n      add\n      swap1\n      tag_42\n      swap3\n      swap2\n      swap1\n      tag_38\n      jump\t// in\n    tag_42:\n      pop\n        /* \"MyTask/MyERC20Token.sol\":838:1017  if(count > 100 && count <= 300){\r... */\n      jump(tag_43)\n    tag_41:\n        /* \"MyTask/MyERC20Token.sol\":941:944  300 */\n      0x012c\n        /* \"MyTask/MyERC20Token.sol\":933:938  count */\n      sload(0x00)\n        /* \"MyTask/MyERC20Token.sol\":933:944  count > 300 */\n      gt\n        /* \"MyTask/MyERC20Token.sol\":933:960  count > 300 && count <= 600 */\n      dup1\n      iszero\n      tag_44\n      jumpi\n      pop\n        /* \"MyTask/MyERC20Token.sol\":957:960  600 */\n      0x0258\n        /* \"MyTask/MyERC20Token.sol\":948:953  count */\n      sload(0x00)\n        /* \"MyTask/MyERC20Token.sol\":948:960  count <= 600 */\n      gt\n      iszero\n        /* \"MyTask/MyERC20Token.sol\":933:960  count > 300 && count <= 600 */\n    tag_44:\n        /* \"MyTask/MyERC20Token.sol\":930:1017  if(count > 300 && count <= 600){\r... */\n      iszero\n      tag_45\n      jumpi\n        /* \"MyTask/MyERC20Token.sol\":979:1002  slabs[tokenAdd]=\"slab2\" */\n      mload(0x40)\n      dup1\n      0x40\n      add\n      0x40\n      mstore\n      dup1\n      0x05\n      dup2\n      mstore\n      0x20\n      add\n      0x736c616232000000000000000000000000000000000000000000000000000000\n      dup2\n      mstore\n      pop\n        /* \"MyTask/MyERC20Token.sol\":979:984  slabs */\n      0x02\n        /* \"MyTask/MyERC20Token.sol\":979:994  slabs[tokenAdd] */\n      0x00\n        /* \"MyTask/MyERC20Token.sol\":985:993  tokenAdd */\n      dup7\n        /* \"MyTask/MyERC20Token.sol\":979:994  slabs[tokenAdd] */\n      0xffffffffffffffffffffffffffffffffffffffff\n      and\n      0xffffffffffffffffffffffffffffffffffffffff\n      and\n      dup2\n      mstore\n      0x20\n      add\n      swap1\n      dup2\n      mstore\n      0x20\n      add\n      0x00\n      keccak256\n        /* \"MyTask/MyERC20Token.sol\":979:1002  slabs[tokenAdd]=\"slab2\" */\n      swap1\n      dup1\n      mload\n      swap1\n      0x20\n      add\n      swap1\n      tag_46\n      swap3\n      swap2\n      swap1\n      tag_38\n      jump\t// in\n    tag_46:\n      pop\n        /* \"MyTask/MyERC20Token.sol\":930:1017  if(count > 300 && count <= 600){\r... */\n    tag_45:\n        /* \"MyTask/MyERC20Token.sol\":838:1017  if(count > 100 && count <= 300){\r... */\n    tag_43:\n        /* \"MyTask/MyERC20Token.sol\":761:1017  if(count <= 100){\r... */\n    tag_39:\n        /* \"MyTask/MyERC20Token.sol\":730:1029  if(flag)\r... */\n    tag_35:\n        /* \"MyTask/MyERC20Token.sol\":356:1035  {\r... */\n      pop\n      pop\n        /* \"MyTask/MyERC20Token.sol\":277:1035  function publicDepositERC20 (address tokenAdd, uint _numberOfToken) external\r... */\n      pop\n      pop\n      jump\t// out\n        /* \"MyTask/MyERC20Token.sol\":228:268  mapping (address => string) public slabs */\n    tag_13:\n      mstore(0x20, 0x02)\n      dup1\n      0x00\n      mstore\n      keccak256(0x00, 0x40)\n      0x00\n      swap2\n      pop\n      swap1\n      pop\n      dup1\n      sload\n      tag_47\n      swap1\n      tag_48\n      jump\t// in\n    tag_47:\n      dup1\n      0x1f\n      add\n      0x20\n      dup1\n      swap2\n      div\n      mul\n      0x20\n      add\n      mload(0x40)\n      swap1\n      dup2\n      add\n      0x40\n      mstore\n      dup1\n      swap3\n      swap2\n      swap1\n      dup2\n      dup2\n      mstore\n      0x20\n      add\n      dup3\n      dup1\n      sload\n      tag_49\n      swap1\n      tag_48\n      jump\t// in\n    tag_49:\n      dup1\n      iszero\n      tag_50\n      jumpi\n      dup1\n      0x1f\n      lt\n      tag_51\n      jumpi\n      0x0100\n      dup1\n      dup4\n      sload\n      div\n      mul\n      dup4\n      mstore\n      swap2\n      0x20\n      add\n      swap2\n      jump(tag_50)\n    tag_51:\n      dup3\n      add\n      swap2\n      swap1\n      0x00\n      mstore\n      keccak256(0x00, 0x20)\n      swap1\n    tag_52:\n      dup2\n      sload\n      dup2\n      mstore\n      swap1\n      0x01\n      add\n      swap1\n      0x20\n      add\n      dup1\n      dup4\n      gt\n      tag_52\n      jumpi\n      dup3\n      swap1\n      sub\n      0x1f\n      and\n      dup3\n      add\n      swap2\n    tag_50:\n      pop\n      pop\n      pop\n      pop\n      pop\n      dup2\n      jump\t// out\n        /* \"MyTask/MyERC20Token.sol\":176:221  mapping (address => uint256) public allTokens */\n    tag_18:\n      mstore(0x20, 0x01)\n      dup1\n      0x00\n      mstore\n      keccak256(0x00, 0x40)\n      0x00\n      swap2\n      pop\n      swap1\n      pop\n      sload\n      dup2\n      jump\t// out\n    tag_38:\n      dup3\n      dup1\n      sload\n      tag_53\n      swap1\n      tag_48\n      jump\t// in\n    tag_53:\n      swap1\n      0x00\n      mstore\n      keccak256(0x00, 0x20)\n      swap1\n      0x1f\n      add\n      0x20\n      swap1\n      div\n      dup2\n      add\n      swap3\n      dup3\n      tag_55\n      jumpi\n      0x00\n      dup6\n      sstore\n      jump(tag_54)\n    tag_55:\n      dup3\n      0x1f\n      lt\n      tag_56\n      jumpi\n      dup1\n      mload\n      not(0xff)\n      and\n      dup4\n      dup1\n      add\n      or\n      dup6\n      sstore\n      jump(tag_54)\n    tag_56:\n      dup3\n      dup1\n      add\n      0x01\n      add\n      dup6\n      sstore\n      dup3\n      iszero\n      tag_54\n      jumpi\n      swap2\n      dup3\n      add\n    tag_57:\n      dup3\n      dup2\n      gt\n      iszero\n      tag_58\n      jumpi\n      dup3\n      mload\n      dup3\n      sstore\n      swap2\n      0x20\n      add\n      swap2\n      swap1\n      0x01\n      add\n      swap1\n      jump(tag_57)\n    tag_58:\n    tag_54:\n      pop\n      swap1\n      pop\n      tag_59\n      swap2\n      swap1\n      tag_60\n      jump\t// in\n    tag_59:\n      pop\n      swap1\n      jump\t// out\n    tag_60:\n    tag_61:\n      dup1\n      dup3\n      gt\n      iszero\n      tag_62\n      jumpi\n      0x00\n      dup2\n      0x00\n      swap1\n      sstore\n      pop\n      0x01\n      add\n      jump(tag_61)\n    tag_62:\n      pop\n      swap1\n      jump\t// out\n        /* \"#utility.yul\":7:146   */\n    tag_64:\n        /* \"#utility.yul\":53:58   */\n      0x00\n        /* \"#utility.yul\":91:97   */\n      dup2\n        /* \"#utility.yul\":78:98   */\n      calldataload\n        /* \"#utility.yul\":69:98   */\n      swap1\n      pop\n        /* \"#utility.yul\":107:140   */\n      tag_66\n        /* \"#utility.yul\":134:139   */\n      dup2\n        /* \"#utility.yul\":107:140   */\n      tag_67\n      jump\t// in\n    tag_66:\n        /* \"#utility.yul\":59:146   */\n      swap3\n      swap2\n      pop\n      pop\n      jump\t// out\n        /* \"#utility.yul\":152:289   */\n    tag_68:\n        /* \"#utility.yul\":206:211   */\n      0x00\n        /* \"#utility.yul\":237:243   */\n      dup2\n        /* \"#utility.yul\":231:244   */\n      mload\n        /* \"#utility.yul\":222:244   */\n      swap1\n      pop\n        /* \"#utility.yul\":253:283   */\n      tag_70\n        /* \"#utility.yul\":277:282   */\n      dup2\n        /* \"#utility.yul\":253:283   */\n      tag_71\n      jump\t// in\n    tag_70:\n        /* \"#utility.yul\":212:289   */\n      swap3\n      swap2\n      pop\n      pop\n      jump\t// out\n        /* \"#utility.yul\":295:434   */\n    tag_72:\n        /* \"#utility.yul\":341:346   */\n      0x00\n        /* \"#utility.yul\":379:385   */\n      dup2\n        /* \"#utility.yul\":366:386   */\n      calldataload\n        /* \"#utility.yul\":357:386   */\n      swap1\n      pop\n        /* \"#utility.yul\":395:428   */\n      tag_74\n        /* \"#utility.yul\":422:427   */\n      dup2\n        /* \"#utility.yul\":395:428   */\n      tag_75\n      jump\t// in\n    tag_74:\n        /* \"#utility.yul\":347:434   */\n      swap3\n      swap2\n      pop\n      pop\n      jump\t// out\n        /* \"#utility.yul\":440:769   */\n    tag_12:\n        /* \"#utility.yul\":499:505   */\n      0x00\n        /* \"#utility.yul\":548:550   */\n      0x20\n        /* \"#utility.yul\":536:545   */\n      dup3\n        /* \"#utility.yul\":527:534   */\n      dup5\n        /* \"#utility.yul\":523:546   */\n      sub\n        /* \"#utility.yul\":519:551   */\n      slt\n        /* \"#utility.yul\":516:518   */\n      iszero\n      tag_77\n      jumpi\n        /* \"#utility.yul\":554:633   */\n      tag_78\n      tag_79\n      jump\t// in\n    tag_78:\n        /* \"#utility.yul\":516:518   */\n    tag_77:\n        /* \"#utility.yul\":674:675   */\n      0x00\n        /* \"#utility.yul\":699:752   */\n      tag_80\n        /* \"#utility.yul\":744:751   */\n      dup5\n        /* \"#utility.yul\":735:741   */\n      dup3\n        /* \"#utility.yul\":724:733   */\n      dup6\n        /* \"#utility.yul\":720:742   */\n      add\n        /* \"#utility.yul\":699:752   */\n      tag_64\n      jump\t// in\n    tag_80:\n        /* \"#utility.yul\":689:752   */\n      swap2\n      pop\n        /* \"#utility.yul\":645:762   */\n      pop\n        /* \"#utility.yul\":506:769   */\n      swap3\n      swap2\n      pop\n      pop\n      jump\t// out\n        /* \"#utility.yul\":775:1249   */\n    tag_8:\n        /* \"#utility.yul\":843:849   */\n      0x00\n        /* \"#utility.yul\":851:857   */\n      dup1\n        /* \"#utility.yul\":900:902   */\n      0x40\n        /* \"#utility.yul\":888:897   */\n      dup4\n        /* \"#utility.yul\":879:886   */\n      dup6\n        /* \"#utility.yul\":875:898   */\n      sub\n        /* \"#utility.yul\":871:903   */\n      slt\n        /* \"#utility.yul\":868:870   */\n      iszero\n      tag_82\n      jumpi\n        /* \"#utility.yul\":906:985   */\n      tag_83\n      tag_79\n      jump\t// in\n    tag_83:\n        /* \"#utility.yul\":868:870   */\n    tag_82:\n        /* \"#utility.yul\":1026:1027   */\n      0x00\n        /* \"#utility.yul\":1051:1104   */\n      tag_84\n        /* \"#utility.yul\":1096:1103   */\n      dup6\n        /* \"#utility.yul\":1087:1093   */\n      dup3\n        /* \"#utility.yul\":1076:1085   */\n      dup7\n        /* \"#utility.yul\":1072:1094   */\n      add\n        /* \"#utility.yul\":1051:1104   */\n      tag_64\n      jump\t// in\n    tag_84:\n        /* \"#utility.yul\":1041:1104   */\n      swap3\n      pop\n        /* \"#utility.yul\":997:1114   */\n      pop\n        /* \"#utility.yul\":1153:1155   */\n      0x20\n        /* \"#utility.yul\":1179:1232   */\n      tag_85\n        /* \"#utility.yul\":1224:1231   */\n      dup6\n        /* \"#utility.yul\":1215:1221   */\n      dup3\n        /* \"#utility.yul\":1204:1213   */\n      dup7\n        /* \"#utility.yul\":1200:1222   */\n      add\n        /* \"#utility.yul\":1179:1232   */\n      tag_72\n      jump\t// in\n    tag_85:\n        /* \"#utility.yul\":1169:1232   */\n      swap2\n      pop\n        /* \"#utility.yul\":1124:1242   */\n      pop\n        /* \"#utility.yul\":858:1249   */\n      swap3\n      pop\n      swap3\n      swap1\n      pop\n      jump\t// out\n        /* \"#utility.yul\":1255:1600   */\n    tag_32:\n        /* \"#utility.yul\":1322:1328   */\n      0x00\n        /* \"#utility.yul\":1371:1373   */\n      0x20\n        /* \"#utility.yul\":1359:1368   */\n      dup3\n        /* \"#utility.yul\":1350:1357   */\n      dup5\n        /* \"#utility.yul\":1346:1369   */\n      sub\n        /* \"#utility.yul\":1342:1374   */\n      slt\n        /* \"#utility.yul\":1339:1341   */\n      iszero\n      tag_87\n      jumpi\n        /* \"#utility.yul\":1377:1456   */\n      tag_88\n      tag_79\n      jump\t// in\n    tag_88:\n        /* \"#utility.yul\":1339:1341   */\n    tag_87:\n        /* \"#utility.yul\":1497:1498   */\n      0x00\n        /* \"#utility.yul\":1522:1583   */\n      tag_89\n        /* \"#utility.yul\":1575:1582   */\n      dup5\n        /* \"#utility.yul\":1566:1572   */\n      dup3\n        /* \"#utility.yul\":1555:1564   */\n      dup6\n        /* \"#utility.yul\":1551:1573   */\n      add\n        /* \"#utility.yul\":1522:1583   */\n      tag_68\n      jump\t// in\n    tag_89:\n        /* \"#utility.yul\":1512:1583   */\n      swap2\n      pop\n        /* \"#utility.yul\":1468:1593   */\n      pop\n        /* \"#utility.yul\":1329:1600   */\n      swap3\n      swap2\n      pop\n      pop\n      jump\t// out\n        /* \"#utility.yul\":1606:1724   */\n    tag_90:\n        /* \"#utility.yul\":1693:1717   */\n      tag_92\n        /* \"#utility.yul\":1711:1716   */\n      dup2\n        /* \"#utility.yul\":1693:1717   */\n      tag_93\n      jump\t// in\n    tag_92:\n        /* \"#utility.yul\":1688:1691   */\n      dup3\n        /* \"#utility.yul\":1681:1718   */\n      mstore\n        /* \"#utility.yul\":1671:1724   */\n      pop\n      pop\n      jump\t// out\n        /* \"#utility.yul\":1730:2094   */\n    tag_94:\n        /* \"#utility.yul\":1818:1821   */\n      0x00\n        /* \"#utility.yul\":1846:1885   */\n      tag_96\n        /* \"#utility.yul\":1879:1884   */\n      dup3\n        /* \"#utility.yul\":1846:1885   */\n      tag_97\n      jump\t// in\n    tag_96:\n        /* \"#utility.yul\":1901:1972   */\n      tag_98\n        /* \"#utility.yul\":1965:1971   */\n      dup2\n        /* \"#utility.yul\":1960:1963   */\n      dup6\n        /* \"#utility.yul\":1901:1972   */\n      tag_99\n      jump\t// in\n    tag_98:\n        /* \"#utility.yul\":1894:1972   */\n      swap4\n      pop\n        /* \"#utility.yul\":1981:2033   */\n      tag_100\n        /* \"#utility.yul\":2026:2032   */\n      dup2\n        /* \"#utility.yul\":2021:2024   */\n      dup6\n        /* \"#utility.yul\":2014:2018   */\n      0x20\n        /* \"#utility.yul\":2007:2012   */\n      dup7\n        /* \"#utility.yul\":2003:2019   */\n      add\n        /* \"#utility.yul\":1981:2033   */\n      tag_101\n      jump\t// in\n    tag_100:\n        /* \"#utility.yul\":2058:2087   */\n      tag_102\n        /* \"#utility.yul\":2080:2086   */\n      dup2\n        /* \"#utility.yul\":2058:2087   */\n      tag_103\n      jump\t// in\n    tag_102:\n        /* \"#utility.yul\":2053:2056   */\n      dup5\n        /* \"#utility.yul\":2049:2088   */\n      add\n        /* \"#utility.yul\":2042:2088   */\n      swap2\n      pop\n        /* \"#utility.yul\":1822:2094   */\n      pop\n      swap3\n      swap2\n      pop\n      pop\n      jump\t// out\n        /* \"#utility.yul\":2100:2218   */\n    tag_104:\n        /* \"#utility.yul\":2187:2211   */\n      tag_106\n        /* \"#utility.yul\":2205:2210   */\n      dup2\n        /* \"#utility.yul\":2187:2211   */\n      tag_107\n      jump\t// in\n    tag_106:\n        /* \"#utility.yul\":2182:2185   */\n      dup3\n        /* \"#utility.yul\":2175:2212   */\n      mstore\n        /* \"#utility.yul\":2165:2218   */\n      pop\n      pop\n      jump\t// out\n        /* \"#utility.yul\":2224:2666   */\n    tag_27:\n        /* \"#utility.yul\":2373:2377   */\n      0x00\n        /* \"#utility.yul\":2411:2413   */\n      0x60\n        /* \"#utility.yul\":2400:2409   */\n      dup3\n        /* \"#utility.yul\":2396:2414   */\n      add\n        /* \"#utility.yul\":2388:2414   */\n      swap1\n      pop\n        /* \"#utility.yul\":2424:2495   */\n      tag_109\n        /* \"#utility.yul\":2492:2493   */\n      0x00\n        /* \"#utility.yul\":2481:2490   */\n      dup4\n        /* \"#utility.yul\":2477:2494   */\n      add\n        /* \"#utility.yul\":2468:2474   */\n      dup7\n        /* \"#utility.yul\":2424:2495   */\n      tag_90\n      jump\t// in\n    tag_109:\n        /* \"#utility.yul\":2505:2577   */\n      tag_110\n        /* \"#utility.yul\":2573:2575   */\n      0x20\n        /* \"#utility.yul\":2562:2571   */\n      dup4\n        /* \"#utility.yul\":2558:2576   */\n      add\n        /* \"#utility.yul\":2549:2555   */\n      dup6\n        /* \"#utility.yul\":2505:2577   */\n      tag_90\n      jump\t// in\n    tag_110:\n        /* \"#utility.yul\":2587:2659   */\n      tag_111\n        /* \"#utility.yul\":2655:2657   */\n      0x40\n        /* \"#utility.yul\":2644:2653   */\n      dup4\n        /* \"#utility.yul\":2640:2658   */\n      add\n        /* \"#utility.yul\":2631:2637   */\n      dup5\n        /* \"#utility.yul\":2587:2659   */\n      tag_104\n      jump\t// in\n    tag_111:\n        /* \"#utility.yul\":2378:2666   */\n      swap5\n      swap4\n      pop\n      pop\n      pop\n      pop\n      jump\t// out\n        /* \"#utility.yul\":2672:2985   */\n    tag_15:\n        /* \"#utility.yul\":2785:2789   */\n      0x00\n        /* \"#utility.yul\":2823:2825   */\n      0x20\n        /* \"#utility.yul\":2812:2821   */\n      dup3\n        /* \"#utility.yul\":2808:2826   */\n      add\n        /* \"#utility.yul\":2800:2826   */\n      swap1\n      pop\n        /* \"#utility.yul\":2872:2881   */\n      dup2\n        /* \"#utility.yul\":2866:2870   */\n      dup2\n        /* \"#utility.yul\":2862:2882   */\n      sub\n        /* \"#utility.yul\":2858:2859   */\n      0x00\n        /* \"#utility.yul\":2847:2856   */\n      dup4\n        /* \"#utility.yul\":2843:2860   */\n      add\n        /* \"#utility.yul\":2836:2883   */\n      mstore\n        /* \"#utility.yul\":2900:2978   */\n      tag_113\n        /* \"#utility.yul\":2973:2977   */\n      dup2\n        /* \"#utility.yul\":2964:2970   */\n      dup5\n        /* \"#utility.yul\":2900:2978   */\n      tag_94\n      jump\t// in\n    tag_113:\n        /* \"#utility.yul\":2892:2978   */\n      swap1\n      pop\n        /* \"#utility.yul\":2790:2985   */\n      swap3\n      swap2\n      pop\n      pop\n      jump\t// out\n        /* \"#utility.yul\":2991:3213   */\n    tag_20:\n        /* \"#utility.yul\":3084:3088   */\n      0x00\n        /* \"#utility.yul\":3122:3124   */\n      0x20\n        /* \"#utility.yul\":3111:3120   */\n      dup3\n        /* \"#utility.yul\":3107:3125   */\n      add\n        /* \"#utility.yul\":3099:3125   */\n      swap1\n      pop\n        /* \"#utility.yul\":3135:3206   */\n      tag_115\n        /* \"#utility.yul\":3203:3204   */\n      0x00\n        /* \"#utility.yul\":3192:3201   */\n      dup4\n        /* \"#utility.yul\":3188:3205   */\n      add\n        /* \"#utility.yul\":3179:3185   */\n      dup5\n        /* \"#utility.yul\":3135:3206   */\n      tag_104\n      jump\t// in\n    tag_115:\n        /* \"#utility.yul\":3089:3213   */\n      swap3\n      swap2\n      pop\n      pop\n      jump\t// out\n        /* \"#utility.yul\":3300:3399   */\n    tag_97:\n        /* \"#utility.yul\":3352:3358   */\n      0x00\n        /* \"#utility.yul\":3386:3391   */\n      dup2\n        /* \"#utility.yul\":3380:3392   */\n      mload\n        /* \"#utility.yul\":3370:3392   */\n      swap1\n      pop\n        /* \"#utility.yul\":3359:3399   */\n      swap2\n      swap1\n      pop\n      jump\t// out\n        /* \"#utility.yul\":3405:3574   */\n    tag_99:\n        /* \"#utility.yul\":3489:3500   */\n      0x00\n        /* \"#utility.yul\":3523:3529   */\n      dup3\n        /* \"#utility.yul\":3518:3521   */\n      dup3\n        /* \"#utility.yul\":3511:3530   */\n      mstore\n        /* \"#utility.yul\":3563:3567   */\n      0x20\n        /* \"#utility.yul\":3558:3561   */\n      dup3\n        /* \"#utility.yul\":3554:3568   */\n      add\n        /* \"#utility.yul\":3539:3568   */\n      swap1\n      pop\n        /* \"#utility.yul\":3501:3574   */\n      swap3\n      swap2\n      pop\n      pop\n      jump\t// out\n        /* \"#utility.yul\":3580:3885   */\n    tag_34:\n        /* \"#utility.yul\":3620:3623   */\n      0x00\n        /* \"#utility.yul\":3639:3659   */\n      tag_121\n        /* \"#utility.yul\":3657:3658   */\n      dup3\n        /* \"#utility.yul\":3639:3659   */\n      tag_107\n      jump\t// in\n    tag_121:\n        /* \"#utility.yul\":3634:3659   */\n      swap2\n      pop\n        /* \"#utility.yul\":3673:3693   */\n      tag_122\n        /* \"#utility.yul\":3691:3692   */\n      dup4\n        /* \"#utility.yul\":3673:3693   */\n      tag_107\n      jump\t// in\n    tag_122:\n        /* \"#utility.yul\":3668:3693   */\n      swap3\n      pop\n        /* \"#utility.yul\":3827:3828   */\n      dup3\n        /* \"#utility.yul\":3759:3825   */\n      0xffffffffffffffffffffffffffffffffffffffffffffffffffffffffffffffff\n        /* \"#utility.yul\":3755:3829   */\n      sub\n        /* \"#utility.yul\":3752:3753   */\n      dup3\n        /* \"#utility.yul\":3749:3830   */\n      gt\n        /* \"#utility.yul\":3746:3748   */\n      iszero\n      tag_123\n      jumpi\n        /* \"#utility.yul\":3833:3851   */\n      tag_124\n      tag_125\n      jump\t// in\n    tag_124:\n        /* \"#utility.yul\":3746:3748   */\n    tag_123:\n        /* \"#utility.yul\":3877:3878   */\n      dup3\n        /* \"#utility.yul\":3874:3875   */\n      dup3\n        /* \"#utility.yul\":3870:3879   */\n      add\n        /* \"#utility.yul\":3863:3879   */\n      swap1\n      pop\n        /* \"#utility.yul\":3624:3885   */\n      swap3\n      swap2\n      pop\n      pop\n      jump\t// out\n        /* \"#utility.yul\":3891:3987   */\n    tag_93:\n        /* \"#utility.yul\":3928:3935   */\n      0x00\n        /* \"#utility.yul\":3957:3981   */\n      tag_127\n        /* \"#utility.yul\":3975:3980   */\n      dup3\n        /* \"#utility.yul\":3957:3981   */\n      tag_128\n      jump\t// in\n    tag_127:\n        /* \"#utility.yul\":3946:3981   */\n      swap1\n      pop\n        /* \"#utility.yul\":3936:3987   */\n      swap2\n      swap1\n      pop\n      jump\t// out\n        /* \"#utility.yul\":3993:4083   */\n    tag_129:\n        /* \"#utility.yul\":4027:4034   */\n      0x00\n        /* \"#utility.yul\":4070:4075   */\n      dup2\n        /* \"#utility.yul\":4063:4076   */\n      iszero\n        /* \"#utility.yul\":4056:4077   */\n      iszero\n        /* \"#utility.yul\":4045:4077   */\n      swap1\n      pop\n        /* \"#utility.yul\":4035:4083   */\n      swap2\n      swap1\n      pop\n      jump\t// out\n        /* \"#utility.yul\":4089:4215   */\n    tag_128:\n        /* \"#utility.yul\":4126:4133   */\n      0x00\n        /* \"#utility.yul\":4166:4208   */\n      0xffffffffffffffffffffffffffffffffffffffff\n        /* \"#utility.yul\":4159:4164   */\n      dup3\n        /* \"#utility.yul\":4155:4209   */\n      and\n        /* \"#utility.yul\":4144:4209   */\n      swap1\n      pop\n        /* \"#utility.yul\":4134:4215   */\n      swap2\n      swap1\n      pop\n      jump\t// out\n        /* \"#utility.yul\":4221:4298   */\n    tag_107:\n        /* \"#utility.yul\":4258:4265   */\n      0x00\n        /* \"#utility.yul\":4287:4292   */\n      dup2\n        /* \"#utility.yul\":4276:4292   */\n      swap1\n      pop\n        /* \"#utility.yul\":4266:4298   */\n      swap2\n      swap1\n      pop\n      jump\t// out\n        /* \"#utility.yul\":4304:4611   */\n    tag_101:\n        /* \"#utility.yul\":4372:4373   */\n      0x00\n        /* \"#utility.yul\":4382:4495   */\n    tag_134:\n        /* \"#utility.yul\":4396:4402   */\n      dup4\n        /* \"#utility.yul\":4393:4394   */\n      dup2\n        /* \"#utility.yul\":4390:4403   */\n      lt\n        /* \"#utility.yul\":4382:4495   */\n      iszero\n      tag_136\n      jumpi\n        /* \"#utility.yul\":4481:4482   */\n      dup1\n        /* \"#utility.yul\":4476:4479   */\n      dup3\n        /* \"#utility.yul\":4472:4483   */\n      add\n        /* \"#utility.yul\":4466:4484   */\n      mload\n        /* \"#utility.yul\":4462:4463   */\n      dup2\n        /* \"#utility.yul\":4457:4460   */\n      dup5\n        /* \"#utility.yul\":4453:4464   */\n      add\n        /* \"#utility.yul\":4446:4485   */\n      mstore\n        /* \"#utility.yul\":4418:4420   */\n      0x20\n        /* \"#utility.yul\":4415:4416   */\n      dup2\n        /* \"#utility.yul\":4411:4421   */\n      add\n        /* \"#utility.yul\":4406:4421   */\n      swap1\n      pop\n        /* \"#utility.yul\":4382:4495   */\n      jump(tag_134)\n    tag_136:\n        /* \"#utility.yul\":4513:4519   */\n      dup4\n        /* \"#utility.yul\":4510:4511   */\n      dup2\n        /* \"#utility.yul\":4507:4520   */\n      gt\n        /* \"#utility.yul\":4504:4506   */\n      iszero\n      tag_137\n      jumpi\n        /* \"#utility.yul\":4593:4594   */\n      0x00\n        /* \"#utility.yul\":4584:4590   */\n      dup5\n        /* \"#utility.yul\":4579:4582   */\n      dup5\n        /* \"#utility.yul\":4575:4591   */\n      add\n        /* \"#utility.yul\":4568:4595   */\n      mstore\n        /* \"#utility.yul\":4504:4506   */\n    tag_137:\n        /* \"#utility.yul\":4353:4611   */\n      pop\n      pop\n      pop\n      pop\n      jump\t// out\n        /* \"#utility.yul\":4617:4937   */\n    tag_48:\n        /* \"#utility.yul\":4661:4667   */\n      0x00\n        /* \"#utility.yul\":4698:4699   */\n      0x02\n        /* \"#utility.yul\":4692:4696   */\n      dup3\n        /* \"#utility.yul\":4688:4700   */\n      div\n        /* \"#utility.yul\":4678:4700   */\n      swap1\n      pop\n        /* \"#utility.yul\":4745:4746   */\n      0x01\n        /* \"#utility.yul\":4739:4743   */\n      dup3\n        /* \"#utility.yul\":4735:4747   */\n      and\n        /* \"#utility.yul\":4766:4784   */\n      dup1\n        /* \"#utility.yul\":4756:4758   */\n      tag_139\n      jumpi\n        /* \"#utility.yul\":4822:4826   */\n      0x7f\n        /* \"#utility.yul\":4814:4820   */\n      dup3\n        /* \"#utility.yul\":4810:4827   */\n      and\n        /* \"#utility.yul\":4800:4827   */\n      swap2\n      pop\n        /* \"#utility.yul\":4756:4758   */\n    tag_139:\n        /* \"#utility.yul\":4884:4886   */\n      0x20\n        /* \"#utility.yul\":4876:4882   */\n      dup3\n        /* \"#utility.yul\":4873:4887   */\n      lt\n        /* \"#utility.yul\":4853:4871   */\n      dup2\n        /* \"#utility.yul\":4850:4888   */\n      eq\n        /* \"#utility.yul\":4847:4849   */\n      iszero\n      tag_140\n      jumpi\n        /* \"#utility.yul\":4903:4921   */\n      tag_141\n      tag_142\n      jump\t// in\n    tag_141:\n        /* \"#utility.yul\":4847:4849   */\n    tag_140:\n        /* \"#utility.yul\":4668:4937   */\n      pop\n      swap2\n      swap1\n      pop\n      jump\t// out\n        /* \"#utility.yul\":4943:5176   */\n    tag_24:\n        /* \"#utility.yul\":4982:4985   */\n      0x00\n        /* \"#utility.yul\":5005:5029   */\n      tag_144\n        /* \"#utility.yul\":5023:5028   */\n      dup3\n        /* \"#utility.yul\":5005:5029   */\n      tag_107\n      jump\t// in\n    tag_144:\n        /* \"#utility.yul\":4996:5029   */\n      swap2\n      pop\n        /* \"#utility.yul\":5051:5117   */\n      0xffffffffffffffffffffffffffffffffffffffffffffffffffffffffffffffff\n        /* \"#utility.yul\":5044:5049   */\n      dup3\n        /* \"#utility.yul\":5041:5118   */\n      eq\n        /* \"#utility.yul\":5038:5040   */\n      iszero\n      tag_145\n      jumpi\n        /* \"#utility.yul\":5121:5139   */\n      tag_146\n      tag_125\n      jump\t// in\n    tag_146:\n        /* \"#utility.yul\":5038:5040   */\n    tag_145:\n        /* \"#utility.yul\":5168:5169   */\n      0x01\n        /* \"#utility.yul\":5161:5166   */\n      dup3\n        /* \"#utility.yul\":5157:5170   */\n      add\n        /* \"#utility.yul\":5150:5170   */\n      swap1\n      pop\n        /* \"#utility.yul\":4986:5176   */\n      swap2\n      swap1\n      pop\n      jump\t// out\n        /* \"#utility.yul\":5182:5362   */\n    tag_125:\n        /* \"#utility.yul\":5230:5307   */\n      0x4e487b7100000000000000000000000000000000000000000000000000000000\n        /* \"#utility.yul\":5227:5228   */\n      0x00\n        /* \"#utility.yul\":5220:5308   */\n      mstore\n        /* \"#utility.yul\":5327:5331   */\n      0x11\n        /* \"#utility.yul\":5324:5325   */\n      0x04\n        /* \"#utility.yul\":5317:5332   */\n      mstore\n        /* \"#utility.yul\":5351:5355   */\n      0x24\n        /* \"#utility.yul\":5348:5349   */\n      0x00\n        /* \"#utility.yul\":5341:5356   */\n      revert\n        /* \"#utility.yul\":5368:5548   */\n    tag_142:\n        /* \"#utility.yul\":5416:5493   */\n      0x4e487b7100000000000000000000000000000000000000000000000000000000\n        /* \"#utility.yul\":5413:5414   */\n      0x00\n        /* \"#utility.yul\":5406:5494   */\n      mstore\n        /* \"#utility.yul\":5513:5517   */\n      0x22\n        /* \"#utility.yul\":5510:5511   */\n      0x04\n        /* \"#utility.yul\":5503:5518   */\n      mstore\n        /* \"#utility.yul\":5537:5541   */\n      0x24\n        /* \"#utility.yul\":5534:5535   */\n      0x00\n        /* \"#utility.yul\":5527:5542   */\n      revert\n        /* \"#utility.yul\":5677:5794   */\n    tag_79:\n        /* \"#utility.yul\":5786:5787   */\n      0x00\n        /* \"#utility.yul\":5783:5784   */\n      dup1\n        /* \"#utility.yul\":5776:5788   */\n      revert\n        /* \"#utility.yul\":5800:5902   */\n    tag_103:\n        /* \"#utility.yul\":5841:5847   */\n      0x00\n        /* \"#utility.yul\":5892:5894   */\n      0x1f\n        /* \"#utility.yul\":5888:5895   */\n      not\n        /* \"#utility.yul\":5883:5885   */\n      0x1f\n        /* \"#utility.yul\":5876:5881   */\n      dup4\n        /* \"#utility.yul\":5872:5886   */\n      add\n        /* \"#utility.yul\":5868:5896   */\n      and\n        /* \"#utility.yul\":5858:5896   */\n      swap1\n      pop\n        /* \"#utility.yul\":5848:5902   */\n      swap2\n      swap1\n      pop\n      jump\t// out\n        /* \"#utility.yul\":5908:6030   */\n    tag_67:\n        /* \"#utility.yul\":5981:6005   */\n      tag_154\n        /* \"#utility.yul\":5999:6004   */\n      dup2\n        /* \"#utility.yul\":5981:6005   */\n      tag_93\n      jump\t// in\n    tag_154:\n        /* \"#utility.yul\":5974:5979   */\n      dup2\n        /* \"#utility.yul\":5971:6006   */\n      eq\n        /* \"#utility.yul\":5961:5963   */\n      tag_155\n      jumpi\n        /* \"#utility.yul\":6020:6021   */\n      0x00\n        /* \"#utility.yul\":6017:6018   */\n      dup1\n        /* \"#utility.yul\":6010:6022   */\n      revert\n        /* \"#utility.yul\":5961:5963   */\n    tag_155:\n        /* \"#utility.yul\":5951:6030   */\n      pop\n      jump\t// out\n        /* \"#utility.yul\":6036:6152   */\n    tag_71:\n        /* \"#utility.yul\":6106:6127   */\n      tag_157\n        /* \"#utility.yul\":6121:6126   */\n      dup2\n        /* \"#utility.yul\":6106:6127   */\n      tag_129\n      jump\t// in\n    tag_157:\n        /* \"#utility.yul\":6099:6104   */\n      dup2\n        /* \"#utility.yul\":6096:6128   */\n      eq\n        /* \"#utility.yul\":6086:6088   */\n      tag_158\n      jumpi\n        /* \"#utility.yul\":6142:6143   */\n      0x00\n        /* \"#utility.yul\":6139:6140   */\n      dup1\n        /* \"#utility.yul\":6132:6144   */\n      revert\n        /* \"#utility.yul\":6086:6088   */\n    tag_158:\n        /* \"#utility.yul\":6076:6152   */\n      pop\n      jump\t// out\n        /* \"#utility.yul\":6158:6280   */\n    tag_75:\n        /* \"#utility.yul\":6231:6255   */\n      tag_160\n        /* \"#utility.yul\":6249:6254   */\n      dup2\n        /* \"#utility.yul\":6231:6255   */\n      tag_107\n      jump\t// in\n    tag_160:\n        /* \"#utility.yul\":6224:6229   */\n      dup2\n        /* \"#utility.yul\":6221:6256   */\n      eq\n        /* \"#utility.yul\":6211:6213   */\n      tag_161\n      jumpi\n        /* \"#utility.yul\":6270:6271   */\n      0x00\n        /* \"#utility.yul\":6267:6268   */\n      dup1\n        /* \"#utility.yul\":6260:6272   */\n      revert\n        /* \"#utility.yul\":6211:6213   */\n    tag_161:\n        /* \"#utility.yul\":6201:6280   */\n      pop\n      jump\t// out\n\n    auxdata: 0xa2646970667358221220bf32e288afd931432467e5dde8860a311755c42785128ed82266c5dba71eaacc64736f6c63430008060033\n}\n",
				"bytecode": {
					"linkReferences": {},
					"object": "60806040526000805534801561001457600080fd5b50610972806100246000396000f3fe608060405234801561001057600080fd5b50600436106100415760003560e01c80630fc2b111146100465780631e54cb771461006257806395ded45c14610092575b600080fd5b610060600480360381019061005b91906105e3565b6100c2565b005b61007c600480360381019061007791906105b6565b61041c565b60405161008991906106de565b60405180910390f35b6100ac60048036038101906100a791906105b6565b6104bc565b6040516100b99190610700565b60405180910390f35b600080600160008573ffffffffffffffffffffffffffffffffffffffff1673ffffffffffffffffffffffffffffffffffffffff1681526020019081526020016000205414156101275760008081548092919061011d9061083a565b9190505550600190505b6000670de0b6b3a7640000905080831161014057600080fd5b8373ffffffffffffffffffffffffffffffffffffffff166323b872dd3330866040518463ffffffff1660e01b815260040161017d939291906106a7565b602060405180830381600087803b15801561019757600080fd5b505af11580156101ab573d6000803e3d6000fd5b505050506040513d601f19601f820116820180604052508101906101cf9190610623565b5082600160008673ffffffffffffffffffffffffffffffffffffffff1673ffffffffffffffffffffffffffffffffffffffff168152602001908152602001600020600082825461021f9190610737565b925050819055508115610416576064600054116102c4576040518060400160405280600581526020017f736c616230000000000000000000000000000000000000000000000000000000815250600260008673ffffffffffffffffffffffffffffffffffffffff1673ffffffffffffffffffffffffffffffffffffffff16815260200190815260200160002090805190602001906102be9291906104d4565b50610415565b60646000541180156102da575061012c60005411155b1561036d576040518060400160405280600581526020017f736c616231000000000000000000000000000000000000000000000000000000815250600260008673ffffffffffffffffffffffffffffffffffffffff1673ffffffffffffffffffffffffffffffffffffffff16815260200190815260200160002090805190602001906103679291906104d4565b50610414565b61012c600054118015610384575061025860005411155b15610413576040518060400160405280600581526020017f736c616232000000000000000000000000000000000000000000000000000000815250600260008673ffffffffffffffffffffffffffffffffffffffff1673ffffffffffffffffffffffffffffffffffffffff16815260200190815260200160002090805190602001906104119291906104d4565b505b5b5b5b50505050565b6002602052806000526040600020600091509050805461043b90610808565b80601f016020809104026020016040519081016040528092919081815260200182805461046790610808565b80156104b45780601f10610489576101008083540402835291602001916104b4565b820191906000526020600020905b81548152906001019060200180831161049757829003601f168201915b505050505081565b60016020528060005260406000206000915090505481565b8280546104e090610808565b90600052602060002090601f0160209004810192826105025760008555610549565b82601f1061051b57805160ff1916838001178555610549565b82800160010185558215610549579182015b8281111561054857825182559160200191906001019061052d565b5b509050610556919061055a565b5090565b5b8082111561057357600081600090555060010161055b565b5090565b600081359050610586816108f7565b92915050565b60008151905061059b8161090e565b92915050565b6000813590506105b081610925565b92915050565b6000602082840312156105cc576105cb6108e1565b5b60006105da84828501610577565b91505092915050565b600080604083850312156105fa576105f96108e1565b5b600061060885828601610577565b9250506020610619858286016105a1565b9150509250929050565b600060208284031215610639576106386108e1565b5b60006106478482850161058c565b91505092915050565b6106598161078d565b82525050565b600061066a8261071b565b6106748185610726565b93506106848185602086016107d5565b61068d816108e6565b840191505092915050565b6106a1816107cb565b82525050565b60006060820190506106bc6000830186610650565b6106c96020830185610650565b6106d66040830184610698565b949350505050565b600060208201905081810360008301526106f8818461065f565b905092915050565b60006020820190506107156000830184610698565b92915050565b600081519050919050565b600082825260208201905092915050565b6000610742826107cb565b915061074d836107cb565b9250827fffffffffffffffffffffffffffffffffffffffffffffffffffffffffffffffff0382111561078257610781610883565b5b828201905092915050565b6000610798826107ab565b9050919050565b60008115159050919050565b600073ffffffffffffffffffffffffffffffffffffffff82169050919050565b6000819050919050565b60005b838110156107f35780820151818401526020810190506107d8565b83811115610802576000848401525b50505050565b6000600282049050600182168061082057607f821691505b60208210811415610834576108336108b2565b5b50919050565b6000610845826107cb565b91507fffffffffffffffffffffffffffffffffffffffffffffffffffffffffffffffff82141561087857610877610883565b5b600182019050919050565b7f4e487b7100000000000000000000000000000000000000000000000000000000600052601160045260246000fd5b7f4e487b7100000000000000000000000000000000000000000000000000000000600052602260045260246000fd5b600080fd5b6000601f19601f8301169050919050565b6109008161078d565b811461090b57600080fd5b50565b6109178161079f565b811461092257600080fd5b50565b61092e816107cb565b811461093957600080fd5b5056fea2646970667358221220bf32e288afd931432467e5dde8860a311755c42785128ed82266c5dba71eaacc64736f6c63430008060033",
					"opcodes": "PUSH1 0x80 PUSH1 0x40 MSTORE PUSH1 0x0 DUP1 SSTORE CALLVALUE DUP1 ISZERO PUSH2 0x14 JUMPI PUSH1 0x0 DUP1 REVERT JUMPDEST POP PUSH2 0x972 DUP1 PUSH2 0x24 PUSH1 0x0 CODECOPY PUSH1 0x0 RETURN INVALID PUSH1 0x80 PUSH1 0x40 MSTORE CALLVALUE DUP1 ISZERO PUSH2 0x10 JUMPI PUSH1 0x0 DUP1 REVERT JUMPDEST POP PUSH1 0x4 CALLDATASIZE LT PUSH2 0x41 JUMPI PUSH1 0x0 CALLDATALOAD PUSH1 0xE0 SHR DUP1 PUSH4 0xFC2B111 EQ PUSH2 0x46 JUMPI DUP1 PUSH4 0x1E54CB77 EQ PUSH2 0x62 JUMPI DUP1 PUSH4 0x95DED45C EQ PUSH2 0x92 JUMPI JUMPDEST PUSH1 0x0 DUP1 REVERT JUMPDEST PUSH2 0x60 PUSH1 0x4 DUP1 CALLDATASIZE SUB DUP2 ADD SWAP1 PUSH2 0x5B SWAP2 SWAP1 PUSH2 0x5E3 JUMP JUMPDEST PUSH2 0xC2 JUMP JUMPDEST STOP JUMPDEST PUSH2 0x7C PUSH1 0x4 DUP1 CALLDATASIZE SUB DUP2 ADD SWAP1 PUSH2 0x77 SWAP2 SWAP1 PUSH2 0x5B6 JUMP JUMPDEST PUSH2 0x41C JUMP JUMPDEST PUSH1 0x40 MLOAD PUSH2 0x89 SWAP2 SWAP1 PUSH2 0x6DE JUMP JUMPDEST PUSH1 0x40 MLOAD DUP1 SWAP2 SUB SWAP1 RETURN JUMPDEST PUSH2 0xAC PUSH1 0x4 DUP1 CALLDATASIZE SUB DUP2 ADD SWAP1 PUSH2 0xA7 SWAP2 SWAP1 PUSH2 0x5B6 JUMP JUMPDEST PUSH2 0x4BC JUMP JUMPDEST PUSH1 0x40 MLOAD PUSH2 0xB9 SWAP2 SWAP1 PUSH2 0x700 JUMP JUMPDEST PUSH1 0x40 MLOAD DUP1 SWAP2 SUB SWAP1 RETURN JUMPDEST PUSH1 0x0 DUP1 PUSH1 0x1 PUSH1 0x0 DUP6 PUSH20 0xFFFFFFFFFFFFFFFFFFFFFFFFFFFFFFFFFFFFFFFF AND PUSH20 0xFFFFFFFFFFFFFFFFFFFFFFFFFFFFFFFFFFFFFFFF AND DUP2 MSTORE PUSH1 0x20 ADD SWAP1 DUP2 MSTORE PUSH1 0x20 ADD PUSH1 0x0 KECCAK256 SLOAD EQ ISZERO PUSH2 0x127 JUMPI PUSH1 0x0 DUP1 DUP2 SLOAD DUP1 SWAP3 SWAP2 SWAP1 PUSH2 0x11D SWAP1 PUSH2 0x83A JUMP JUMPDEST SWAP2 SWAP1 POP SSTORE POP PUSH1 0x1 SWAP1 POP JUMPDEST PUSH1 0x0 PUSH8 0xDE0B6B3A7640000 SWAP1 POP DUP1 DUP4 GT PUSH2 0x140 JUMPI PUSH1 0x0 DUP1 REVERT JUMPDEST DUP4 PUSH20 0xFFFFFFFFFFFFFFFFFFFFFFFFFFFFFFFFFFFFFFFF AND PUSH4 0x23B872DD CALLER ADDRESS DUP7 PUSH1 0x40 MLOAD DUP5 PUSH4 0xFFFFFFFF AND PUSH1 0xE0 SHL DUP2 MSTORE PUSH1 0x4 ADD PUSH2 0x17D SWAP4 SWAP3 SWAP2 SWAP1 PUSH2 0x6A7 JUMP JUMPDEST PUSH1 0x20 PUSH1 0x40 MLOAD DUP1 DUP4 SUB DUP2 PUSH1 0x0 DUP8 DUP1 EXTCODESIZE ISZERO DUP1 ISZERO PUSH2 0x197 JUMPI PUSH1 0x0 DUP1 REVERT JUMPDEST POP GAS CALL ISZERO DUP1 ISZERO PUSH2 0x1AB JUMPI RETURNDATASIZE PUSH1 0x0 DUP1 RETURNDATACOPY RETURNDATASIZE PUSH1 0x0 REVERT JUMPDEST POP POP POP POP PUSH1 0x40 MLOAD RETURNDATASIZE PUSH1 0x1F NOT PUSH1 0x1F DUP3 ADD AND DUP3 ADD DUP1 PUSH1 0x40 MSTORE POP DUP2 ADD SWAP1 PUSH2 0x1CF SWAP2 SWAP1 PUSH2 0x623 JUMP JUMPDEST POP DUP3 PUSH1 0x1 PUSH1 0x0 DUP7 PUSH20 0xFFFFFFFFFFFFFFFFFFFFFFFFFFFFFFFFFFFFFFFF AND PUSH20 0xFFFFFFFFFFFFFFFFFFFFFFFFFFFFFFFFFFFFFFFF AND DUP2 MSTORE PUSH1 0x20 ADD SWAP1 DUP2 MSTORE PUSH1 0x20 ADD PUSH1 0x0 KECCAK256 PUSH1 0x0 DUP3 DUP3 SLOAD PUSH2 0x21F SWAP2 SWAP1 PUSH2 0x737 JUMP JUMPDEST SWAP3 POP POP DUP2 SWAP1 SSTORE POP DUP2 ISZERO PUSH2 0x416 JUMPI PUSH1 0x64 PUSH1 0x0 SLOAD GT PUSH2 0x2C4 JUMPI PUSH1 0x40 MLOAD DUP1 PUSH1 0x40 ADD PUSH1 0x40 MSTORE DUP1 PUSH1 0x5 DUP2 MSTORE PUSH1 0x20 ADD PUSH32 0x736C616230000000000000000000000000000000000000000000000000000000 DUP2 MSTORE POP PUSH1 0x2 PUSH1 0x0 DUP7 PUSH20 0xFFFFFFFFFFFFFFFFFFFFFFFFFFFFFFFFFFFFFFFF AND PUSH20 0xFFFFFFFFFFFFFFFFFFFFFFFFFFFFFFFFFFFFFFFF AND DUP2 MSTORE PUSH1 0x20 ADD SWAP1 DUP2 MSTORE PUSH1 0x20 ADD PUSH1 0x0 KECCAK256 SWAP1 DUP1 MLOAD SWAP1 PUSH1 0x20 ADD SWAP1 PUSH2 0x2BE SWAP3 SWAP2 SWAP1 PUSH2 0x4D4 JUMP JUMPDEST POP PUSH2 0x415 JUMP JUMPDEST PUSH1 0x64 PUSH1 0x0 SLOAD GT DUP1 ISZERO PUSH2 0x2DA JUMPI POP PUSH2 0x12C PUSH1 0x0 SLOAD GT ISZERO JUMPDEST ISZERO PUSH2 0x36D JUMPI PUSH1 0x40 MLOAD DUP1 PUSH1 0x40 ADD PUSH1 0x40 MSTORE DUP1 PUSH1 0x5 DUP2 MSTORE PUSH1 0x20 ADD PUSH32 0x736C616231000000000000000000000000000000000000000000000000000000 DUP2 MSTORE POP PUSH1 0x2 PUSH1 0x0 DUP7 PUSH20 0xFFFFFFFFFFFFFFFFFFFFFFFFFFFFFFFFFFFFFFFF AND PUSH20 0xFFFFFFFFFFFFFFFFFFFFFFFFFFFFFFFFFFFFFFFF AND DUP2 MSTORE PUSH1 0x20 ADD SWAP1 DUP2 MSTORE PUSH1 0x20 ADD PUSH1 0x0 KECCAK256 SWAP1 DUP1 MLOAD SWAP1 PUSH1 0x20 ADD SWAP1 PUSH2 0x367 SWAP3 SWAP2 SWAP1 PUSH2 0x4D4 JUMP JUMPDEST POP PUSH2 0x414 JUMP JUMPDEST PUSH2 0x12C PUSH1 0x0 SLOAD GT DUP1 ISZERO PUSH2 0x384 JUMPI POP PUSH2 0x258 PUSH1 0x0 SLOAD GT ISZERO JUMPDEST ISZERO PUSH2 0x413 JUMPI PUSH1 0x40 MLOAD DUP1 PUSH1 0x40 ADD PUSH1 0x40 MSTORE DUP1 PUSH1 0x5 DUP2 MSTORE PUSH1 0x20 ADD PUSH32 0x736C616232000000000000000000000000000000000000000000000000000000 DUP2 MSTORE POP PUSH1 0x2 PUSH1 0x0 DUP7 PUSH20 0xFFFFFFFFFFFFFFFFFFFFFFFFFFFFFFFFFFFFFFFF AND PUSH20 0xFFFFFFFFFFFFFFFFFFFFFFFFFFFFFFFFFFFFFFFF AND DUP2 MSTORE PUSH1 0x20 ADD SWAP1 DUP2 MSTORE PUSH1 0x20 ADD PUSH1 0x0 KECCAK256 SWAP1 DUP1 MLOAD SWAP1 PUSH1 0x20 ADD SWAP1 PUSH2 0x411 SWAP3 SWAP2 SWAP1 PUSH2 0x4D4 JUMP JUMPDEST POP JUMPDEST JUMPDEST JUMPDEST JUMPDEST POP POP POP POP JUMP JUMPDEST PUSH1 0x2 PUSH1 0x20 MSTORE DUP1 PUSH1 0x0 MSTORE PUSH1 0x40 PUSH1 0x0 KECCAK256 PUSH1 0x0 SWAP2 POP SWAP1 POP DUP1 SLOAD PUSH2 0x43B SWAP1 PUSH2 0x808 JUMP JUMPDEST DUP1 PUSH1 0x1F ADD PUSH1 0x20 DUP1 SWAP2 DIV MUL PUSH1 0x20 ADD PUSH1 0x40 MLOAD SWAP1 DUP2 ADD PUSH1 0x40 MSTORE DUP1 SWAP3 SWAP2 SWAP1 DUP2 DUP2 MSTORE PUSH1 0x20 ADD DUP3 DUP1 SLOAD PUSH2 0x467 SWAP1 PUSH2 0x808 JUMP JUMPDEST DUP1 ISZERO PUSH2 0x4B4 JUMPI DUP1 PUSH1 0x1F LT PUSH2 0x489 JUMPI PUSH2 0x100 DUP1 DUP4 SLOAD DIV MUL DUP4 MSTORE SWAP2 PUSH1 0x20 ADD SWAP2 PUSH2 0x4B4 JUMP JUMPDEST DUP3 ADD SWAP2 SWAP1 PUSH1 0x0 MSTORE PUSH1 0x20 PUSH1 0x0 KECCAK256 SWAP1 JUMPDEST DUP2 SLOAD DUP2 MSTORE SWAP1 PUSH1 0x1 ADD SWAP1 PUSH1 0x20 ADD DUP1 DUP4 GT PUSH2 0x497 JUMPI DUP3 SWAP1 SUB PUSH1 0x1F AND DUP3 ADD SWAP2 JUMPDEST POP POP POP POP POP DUP2 JUMP JUMPDEST PUSH1 0x1 PUSH1 0x20 MSTORE DUP1 PUSH1 0x0 MSTORE PUSH1 0x40 PUSH1 0x0 KECCAK256 PUSH1 0x0 SWAP2 POP SWAP1 POP SLOAD DUP2 JUMP JUMPDEST DUP3 DUP1 SLOAD PUSH2 0x4E0 SWAP1 PUSH2 0x808 JUMP JUMPDEST SWAP1 PUSH1 0x0 MSTORE PUSH1 0x20 PUSH1 0x0 KECCAK256 SWAP1 PUSH1 0x1F ADD PUSH1 0x20 SWAP1 DIV DUP2 ADD SWAP3 DUP3 PUSH2 0x502 JUMPI PUSH1 0x0 DUP6 SSTORE PUSH2 0x549 JUMP JUMPDEST DUP3 PUSH1 0x1F LT PUSH2 0x51B JUMPI DUP1 MLOAD PUSH1 0xFF NOT AND DUP4 DUP1 ADD OR DUP6 SSTORE PUSH2 0x549 JUMP JUMPDEST DUP3 DUP1 ADD PUSH1 0x1 ADD DUP6 SSTORE DUP3 ISZERO PUSH2 0x549 JUMPI SWAP2 DUP3 ADD JUMPDEST DUP3 DUP2 GT ISZERO PUSH2 0x548 JUMPI DUP3 MLOAD DUP3 SSTORE SWAP2 PUSH1 0x20 ADD SWAP2 SWAP1 PUSH1 0x1 ADD SWAP1 PUSH2 0x52D JUMP JUMPDEST JUMPDEST POP SWAP1 POP PUSH2 0x556 SWAP2 SWAP1 PUSH2 0x55A JUMP JUMPDEST POP SWAP1 JUMP JUMPDEST JUMPDEST DUP1 DUP3 GT ISZERO PUSH2 0x573 JUMPI PUSH1 0x0 DUP2 PUSH1 0x0 SWAP1 SSTORE POP PUSH1 0x1 ADD PUSH2 0x55B JUMP JUMPDEST POP SWAP1 JUMP JUMPDEST PUSH1 0x0 DUP2 CALLDATALOAD SWAP1 POP PUSH2 0x586 DUP2 PUSH2 0x8F7 JUMP JUMPDEST SWAP3 SWAP2 POP POP JUMP JUMPDEST PUSH1 0x0 DUP2 MLOAD SWAP1 POP PUSH2 0x59B DUP2 PUSH2 0x90E JUMP JUMPDEST SWAP3 SWAP2 POP POP JUMP JUMPDEST PUSH1 0x0 DUP2 CALLDATALOAD SWAP1 POP PUSH2 0x5B0 DUP2 PUSH2 0x925 JUMP JUMPDEST SWAP3 SWAP2 POP POP JUMP JUMPDEST PUSH1 0x0 PUSH1 0x20 DUP3 DUP5 SUB SLT ISZERO PUSH2 0x5CC JUMPI PUSH2 0x5CB PUSH2 0x8E1 JUMP JUMPDEST JUMPDEST PUSH1 0x0 PUSH2 0x5DA DUP5 DUP3 DUP6 ADD PUSH2 0x577 JUMP JUMPDEST SWAP2 POP POP SWAP3 SWAP2 POP POP JUMP JUMPDEST PUSH1 0x0 DUP1 PUSH1 0x40 DUP4 DUP6 SUB SLT ISZERO PUSH2 0x5FA JUMPI PUSH2 0x5F9 PUSH2 0x8E1 JUMP JUMPDEST JUMPDEST PUSH1 0x0 PUSH2 0x608 DUP6 DUP3 DUP7 ADD PUSH2 0x577 JUMP JUMPDEST SWAP3 POP POP PUSH1 0x20 PUSH2 0x619 DUP6 DUP3 DUP7 ADD PUSH2 0x5A1 JUMP JUMPDEST SWAP2 POP POP SWAP3 POP SWAP3 SWAP1 POP JUMP JUMPDEST PUSH1 0x0 PUSH1 0x20 DUP3 DUP5 SUB SLT ISZERO PUSH2 0x639 JUMPI PUSH2 0x638 PUSH2 0x8E1 JUMP JUMPDEST JUMPDEST PUSH1 0x0 PUSH2 0x647 DUP5 DUP3 DUP6 ADD PUSH2 0x58C JUMP JUMPDEST SWAP2 POP POP SWAP3 SWAP2 POP POP JUMP JUMPDEST PUSH2 0x659 DUP2 PUSH2 0x78D JUMP JUMPDEST DUP3 MSTORE POP POP JUMP JUMPDEST PUSH1 0x0 PUSH2 0x66A DUP3 PUSH2 0x71B JUMP JUMPDEST PUSH2 0x674 DUP2 DUP6 PUSH2 0x726 JUMP JUMPDEST SWAP4 POP PUSH2 0x684 DUP2 DUP6 PUSH1 0x20 DUP7 ADD PUSH2 0x7D5 JUMP JUMPDEST PUSH2 0x68D DUP2 PUSH2 0x8E6 JUMP JUMPDEST DUP5 ADD SWAP2 POP POP SWAP3 SWAP2 POP POP JUMP JUMPDEST PUSH2 0x6A1 DUP2 PUSH2 0x7CB JUMP JUMPDEST DUP3 MSTORE POP POP JUMP JUMPDEST PUSH1 0x0 PUSH1 0x60 DUP3 ADD SWAP1 POP PUSH2 0x6BC PUSH1 0x0 DUP4 ADD DUP7 PUSH2 0x650 JUMP JUMPDEST PUSH2 0x6C9 PUSH1 0x20 DUP4 ADD DUP6 PUSH2 0x650 JUMP JUMPDEST PUSH2 0x6D6 PUSH1 0x40 DUP4 ADD DUP5 PUSH2 0x698 JUMP JUMPDEST SWAP5 SWAP4 POP POP POP POP JUMP JUMPDEST PUSH1 0x0 PUSH1 0x20 DUP3 ADD SWAP1 POP DUP2 DUP2 SUB PUSH1 0x0 DUP4 ADD MSTORE PUSH2 0x6F8 DUP2 DUP5 PUSH2 0x65F JUMP JUMPDEST SWAP1 POP SWAP3 SWAP2 POP POP JUMP JUMPDEST PUSH1 0x0 PUSH1 0x20 DUP3 ADD SWAP1 POP PUSH2 0x715 PUSH1 0x0 DUP4 ADD DUP5 PUSH2 0x698 JUMP JUMPDEST SWAP3 SWAP2 POP POP JUMP JUMPDEST PUSH1 0x0 DUP2 MLOAD SWAP1 POP SWAP2 SWAP1 POP JUMP JUMPDEST PUSH1 0x0 DUP3 DUP3 MSTORE PUSH1 0x20 DUP3 ADD SWAP1 POP SWAP3 SWAP2 POP POP JUMP JUMPDEST PUSH1 0x0 PUSH2 0x742 DUP3 PUSH2 0x7CB JUMP JUMPDEST SWAP2 POP PUSH2 0x74D DUP4 PUSH2 0x7CB JUMP JUMPDEST SWAP3 POP DUP3 PUSH32 0xFFFFFFFFFFFFFFFFFFFFFFFFFFFFFFFFFFFFFFFFFFFFFFFFFFFFFFFFFFFFFFFF SUB DUP3 GT ISZERO PUSH2 0x782 JUMPI PUSH2 0x781 PUSH2 0x883 JUMP JUMPDEST JUMPDEST DUP3 DUP3 ADD SWAP1 POP SWAP3 SWAP2 POP POP JUMP JUMPDEST PUSH1 0x0 PUSH2 0x798 DUP3 PUSH2 0x7AB JUMP JUMPDEST SWAP1 POP SWAP2 SWAP1 POP JUMP JUMPDEST PUSH1 0x0 DUP2 ISZERO ISZERO SWAP1 POP SWAP2 SWAP1 POP JUMP JUMPDEST PUSH1 0x0 PUSH20 0xFFFFFFFFFFFFFFFFFFFFFFFFFFFFFFFFFFFFFFFF DUP3 AND SWAP1 POP SWAP2 SWAP1 POP JUMP JUMPDEST PUSH1 0x0 DUP2 SWAP1 POP SWAP2 SWAP1 POP JUMP JUMPDEST PUSH1 0x0 JUMPDEST DUP4 DUP2 LT ISZERO PUSH2 0x7F3 JUMPI DUP1 DUP3 ADD MLOAD DUP2 DUP5 ADD MSTORE PUSH1 0x20 DUP2 ADD SWAP1 POP PUSH2 0x7D8 JUMP JUMPDEST DUP4 DUP2 GT ISZERO PUSH2 0x802 JUMPI PUSH1 0x0 DUP5 DUP5 ADD MSTORE JUMPDEST POP POP POP POP JUMP JUMPDEST PUSH1 0x0 PUSH1 0x2 DUP3 DIV SWAP1 POP PUSH1 0x1 DUP3 AND DUP1 PUSH2 0x820 JUMPI PUSH1 0x7F DUP3 AND SWAP2 POP JUMPDEST PUSH1 0x20 DUP3 LT DUP2 EQ ISZERO PUSH2 0x834 JUMPI PUSH2 0x833 PUSH2 0x8B2 JUMP JUMPDEST JUMPDEST POP SWAP2 SWAP1 POP JUMP JUMPDEST PUSH1 0x0 PUSH2 0x845 DUP3 PUSH2 0x7CB JUMP JUMPDEST SWAP2 POP PUSH32 0xFFFFFFFFFFFFFFFFFFFFFFFFFFFFFFFFFFFFFFFFFFFFFFFFFFFFFFFFFFFFFFFF DUP3 EQ ISZERO PUSH2 0x878 JUMPI PUSH2 0x877 PUSH2 0x883 JUMP JUMPDEST JUMPDEST PUSH1 0x1 DUP3 ADD SWAP1 POP SWAP2 SWAP1 POP JUMP JUMPDEST PUSH32 0x4E487B7100000000000000000000000000000000000000000000000000000000 PUSH1 0x0 MSTORE PUSH1 0x11 PUSH1 0x4 MSTORE PUSH1 0x24 PUSH1 0x0 REVERT JUMPDEST PUSH32 0x4E487B7100000000000000000000000000000000000000000000000000000000 PUSH1 0x0 MSTORE PUSH1 0x22 PUSH1 0x4 MSTORE PUSH1 0x24 PUSH1 0x0 REVERT JUMPDEST PUSH1 0x0 DUP1 REVERT JUMPDEST PUSH1 0x0 PUSH1 0x1F NOT PUSH1 0x1F DUP4 ADD AND SWAP1 POP SWAP2 SWAP1 POP JUMP JUMPDEST PUSH2 0x900 DUP2 PUSH2 0x78D JUMP JUMPDEST DUP2 EQ PUSH2 0x90B JUMPI PUSH1 0x0 DUP1 REVERT JUMPDEST POP JUMP JUMPDEST PUSH2 0x917 DUP2 PUSH2 0x79F JUMP JUMPDEST DUP2 EQ PUSH2 0x922 JUMPI PUSH1 0x0 DUP1 REVERT JUMPDEST POP JUMP JUMPDEST PUSH2 0x92E DUP2 PUSH2 0x7CB JUMP JUMPDEST DUP2 EQ PUSH2 0x939 JUMPI PUSH1 0x0 DUP1 REVERT JUMPDEST POP JUMP INVALID LOG2 PUSH5 0x6970667358 0x22 SLT KECCAK256 0xBF ORIGIN 0xE2 DUP9 0xAF 0xD9 BALANCE NUMBER 0x24 PUSH8 0xE5DDE8860A311755 0xC4 0x27 DUP6 SLT DUP15 0xD8 0x22 PUSH7 0xC5DBA71EAACC64 PUSH20 0x6F6C634300080600330000000000000000000000 "
				},
				"gasEstimates": {
					"creation": {
						"codeDepositCost": "483600",
						"executionCost": "5524",
						"totalCost": "489124"
					},
					"external": {
						"allTokens(address)": "2836",
						"publicDepositERC20(address,uint256)": "infinite",
						"slabs(address)": "infinite"
					}
				},
				"methodIdentifiers": {
					"allTokens(address)": "95ded45c",
					"publicDepositERC20(address,uint256)": "0fc2b111",
					"slabs(address)": "1e54cb77"
				}
			},
			"storageLayout": {
				"storage": [
					{
						"astId": 83,
						"contract": "MyTask/MyERC20Token.sol:TokenDeposit",
						"label": "count",
						"offset": 0,
						"slot": "0",
						"type": "t_uint256"
					},
					{
						"astId": 87,
						"contract": "MyTask/MyERC20Token.sol:TokenDeposit",
						"label": "allTokens",
						"offset": 0,
						"slot": "1",
						"type": "t_mapping(t_address,t_uint256)"
					},
					{
						"astId": 91,
						"contract": "MyTask/MyERC20Token.sol:TokenDeposit",
						"label": "slabs",
						"offset": 0,
						"slot": "2",
						"type": "t_mapping(t_address,t_string_storage)"
					}
				],
				"types": {
					"t_address": {
						"encoding": "inplace",
						"label": "address",
						"numberOfBytes": "20"
					},
					"t_mapping(t_address,t_string_storage)": {
						"encoding": "mapping",
						"key": "t_address",
						"label": "mapping(address => string)",
						"numberOfBytes": "32",
						"value": "t_string_storage"
					},
					"t_mapping(t_address,t_uint256)": {
						"encoding": "mapping",
						"key": "t_address",
						"label": "mapping(address => uint256)",
						"numberOfBytes": "32",
						"value": "t_uint256"
					},
					"t_string_storage": {
						"encoding": "bytes",
						"label": "string",
						"numberOfBytes": "32"
					},
					"t_uint256": {
						"encoding": "inplace",
						"label": "uint256",
						"numberOfBytes": "32"
					}
				}
			},
			"userdoc": {
				"kind": "user",
				"methods": {},
				"version": 1
			}
		}
	}
}