{
	"MyTask/MyERC20Token.sol": {
		"TokenDeposit": {
			"abi": [
				{
					"inputs": [
						{
							"internalType": "address",
							"name": "",
							"type": "address"
						}
					],
					"name": "allTokens",
					"outputs": [
						{
							"internalType": "uint256",
							"name": "",
							"type": "uint256"
						}
					],
					"stateMutability": "view",
					"type": "function"
				},
				{
					"inputs": [
						{
							"internalType": "address",
							"name": "tokenAdd",
							"type": "address"
						},
						{
							"internalType": "uint256",
							"name": "numberOfToken",
							"type": "uint256"
						}
					],
					"name": "publicDepositERC20",
					"outputs": [],
					"stateMutability": "nonpayable",
					"type": "function"
				},
				{
					"inputs": [
						{
							"internalType": "address",
							"name": "",
							"type": "address"
						}
					],
					"name": "slabs",
					"outputs": [
						{
							"internalType": "string",
							"name": "",
							"type": "string"
						}
					],
					"stateMutability": "view",
					"type": "function"
				}
			],
			"devdoc": {
				"kind": "dev",
				"methods": {},
				"version": 1
			},
			"evm": {
				"assembly": "    /* \"MyTask/MyERC20Token.sol\":127:401  contract TokenDeposit{\r... */\n  mstore(0x40, 0x80)\n    /* \"MyTask/MyERC20Token.sol\":168:169  0 */\n  0x00\n    /* \"MyTask/MyERC20Token.sol\":155:169  uint count = 0 */\n  dup1\n  sstore\n    /* \"MyTask/MyERC20Token.sol\":127:401  contract TokenDeposit{\r... */\n  callvalue\n  dup1\n  iszero\n  tag_1\n  jumpi\n  0x00\n  dup1\n  revert\ntag_1:\n  pop\n  dataSize(sub_0)\n  dup1\n  dataOffset(sub_0)\n  0x00\n  codecopy\n  0x00\n  return\nstop\n\nsub_0: assembly {\n        /* \"MyTask/MyERC20Token.sol\":127:401  contract TokenDeposit{\r... */\n      mstore(0x40, 0x80)\n      callvalue\n      dup1\n      iszero\n      tag_1\n      jumpi\n      0x00\n      dup1\n      revert\n    tag_1:\n      pop\n      jumpi(tag_2, lt(calldatasize, 0x04))\n      shr(0xe0, calldataload(0x00))\n      dup1\n      0x0fc2b111\n      eq\n      tag_3\n      jumpi\n      dup1\n      0x1e54cb77\n      eq\n      tag_4\n      jumpi\n      dup1\n      0x95ded45c\n      eq\n      tag_5\n      jumpi\n    tag_2:\n      0x00\n      dup1\n      revert\n        /* \"MyTask/MyERC20Token.sol\":277:398  function publicDepositERC20 (address tokenAdd, uint numberOfToken) external\r... */\n    tag_3:\n      tag_6\n      0x04\n      dup1\n      calldatasize\n      sub\n      dup2\n      add\n      swap1\n      tag_7\n      swap2\n      swap1\n      tag_8\n      jump\t// in\n    tag_7:\n      tag_9\n      jump\t// in\n    tag_6:\n      stop\n        /* \"MyTask/MyERC20Token.sol\":228:268  mapping (address => string) public slabs */\n    tag_4:\n      tag_10\n      0x04\n      dup1\n      calldatasize\n      sub\n      dup2\n      add\n      swap1\n      tag_11\n      swap2\n      swap1\n      tag_12\n      jump\t// in\n    tag_11:\n      tag_13\n      jump\t// in\n    tag_10:\n      mload(0x40)\n      tag_14\n      swap2\n      swap1\n      tag_15\n      jump\t// in\n    tag_14:\n      mload(0x40)\n      dup1\n      swap2\n      sub\n      swap1\n      return\n        /* \"MyTask/MyERC20Token.sol\":176:221  mapping (address => uint256) public allTokens */\n    tag_5:\n      tag_16\n      0x04\n      dup1\n      calldatasize\n      sub\n      dup2\n      add\n      swap1\n      tag_17\n      swap2\n      swap1\n      tag_12\n      jump\t// in\n    tag_17:\n      tag_18\n      jump\t// in\n    tag_16:\n      mload(0x40)\n      tag_19\n      swap2\n      swap1\n      tag_20\n      jump\t// in\n    tag_19:\n      mload(0x40)\n      dup1\n      swap2\n      sub\n      swap1\n      return\n        /* \"MyTask/MyERC20Token.sol\":277:398  function publicDepositERC20 (address tokenAdd, uint numberOfToken) external\r... */\n    tag_9:\n      pop\n      pop\n      jump\t// out\n        /* \"MyTask/MyERC20Token.sol\":228:268  mapping (address => string) public slabs */\n    tag_13:\n      mstore(0x20, 0x02)\n      dup1\n      0x00\n      mstore\n      keccak256(0x00, 0x40)\n      0x00\n      swap2\n      pop\n      swap1\n      pop\n      dup1\n      sload\n      tag_22\n      swap1\n      tag_23\n      jump\t// in\n    tag_22:\n      dup1\n      0x1f\n      add\n      0x20\n      dup1\n      swap2\n      div\n      mul\n      0x20\n      add\n      mload(0x40)\n      swap1\n      dup2\n      add\n      0x40\n      mstore\n      dup1\n      swap3\n      swap2\n      swap1\n      dup2\n      dup2\n      mstore\n      0x20\n      add\n      dup3\n      dup1\n      sload\n      tag_24\n      swap1\n      tag_23\n      jump\t// in\n    tag_24:\n      dup1\n      iszero\n      tag_25\n      jumpi\n      dup1\n      0x1f\n      lt\n      tag_26\n      jumpi\n      0x0100\n      dup1\n      dup4\n      sload\n      div\n      mul\n      dup4\n      mstore\n      swap2\n      0x20\n      add\n      swap2\n      jump(tag_25)\n    tag_26:\n      dup3\n      add\n      swap2\n      swap1\n      0x00\n      mstore\n      keccak256(0x00, 0x20)\n      swap1\n    tag_27:\n      dup2\n      sload\n      dup2\n      mstore\n      swap1\n      0x01\n      add\n      swap1\n      0x20\n      add\n      dup1\n      dup4\n      gt\n      tag_27\n      jumpi\n      dup3\n      swap1\n      sub\n      0x1f\n      and\n      dup3\n      add\n      swap2\n    tag_25:\n      pop\n      pop\n      pop\n      pop\n      pop\n      dup2\n      jump\t// out\n        /* \"MyTask/MyERC20Token.sol\":176:221  mapping (address => uint256) public allTokens */\n    tag_18:\n      mstore(0x20, 0x01)\n      dup1\n      0x00\n      mstore\n      keccak256(0x00, 0x40)\n      0x00\n      swap2\n      pop\n      swap1\n      pop\n      sload\n      dup2\n      jump\t// out\n        /* \"#utility.yul\":7:146   */\n    tag_29:\n        /* \"#utility.yul\":53:58   */\n      0x00\n        /* \"#utility.yul\":91:97   */\n      dup2\n        /* \"#utility.yul\":78:98   */\n      calldataload\n        /* \"#utility.yul\":69:98   */\n      swap1\n      pop\n        /* \"#utility.yul\":107:140   */\n      tag_31\n        /* \"#utility.yul\":134:139   */\n      dup2\n        /* \"#utility.yul\":107:140   */\n      tag_32\n      jump\t// in\n    tag_31:\n        /* \"#utility.yul\":59:146   */\n      swap3\n      swap2\n      pop\n      pop\n      jump\t// out\n        /* \"#utility.yul\":152:291   */\n    tag_33:\n        /* \"#utility.yul\":198:203   */\n      0x00\n        /* \"#utility.yul\":236:242   */\n      dup2\n        /* \"#utility.yul\":223:243   */\n      calldataload\n        /* \"#utility.yul\":214:243   */\n      swap1\n      pop\n        /* \"#utility.yul\":252:285   */\n      tag_35\n        /* \"#utility.yul\":279:284   */\n      dup2\n        /* \"#utility.yul\":252:285   */\n      tag_36\n      jump\t// in\n    tag_35:\n        /* \"#utility.yul\":204:291   */\n      swap3\n      swap2\n      pop\n      pop\n      jump\t// out\n        /* \"#utility.yul\":297:626   */\n    tag_12:\n        /* \"#utility.yul\":356:362   */\n      0x00\n        /* \"#utility.yul\":405:407   */\n      0x20\n        /* \"#utility.yul\":393:402   */\n      dup3\n        /* \"#utility.yul\":384:391   */\n      dup5\n        /* \"#utility.yul\":380:403   */\n      sub\n        /* \"#utility.yul\":376:408   */\n      slt\n        /* \"#utility.yul\":373:375   */\n      iszero\n      tag_38\n      jumpi\n        /* \"#utility.yul\":411:490   */\n      tag_39\n      tag_40\n      jump\t// in\n    tag_39:\n        /* \"#utility.yul\":373:375   */\n    tag_38:\n        /* \"#utility.yul\":531:532   */\n      0x00\n        /* \"#utility.yul\":556:609   */\n      tag_41\n        /* \"#utility.yul\":601:608   */\n      dup5\n        /* \"#utility.yul\":592:598   */\n      dup3\n        /* \"#utility.yul\":581:590   */\n      dup6\n        /* \"#utility.yul\":577:599   */\n      add\n        /* \"#utility.yul\":556:609   */\n      tag_29\n      jump\t// in\n    tag_41:\n        /* \"#utility.yul\":546:609   */\n      swap2\n      pop\n        /* \"#utility.yul\":502:619   */\n      pop\n        /* \"#utility.yul\":363:626   */\n      swap3\n      swap2\n      pop\n      pop\n      jump\t// out\n        /* \"#utility.yul\":632:1106   */\n    tag_8:\n        /* \"#utility.yul\":700:706   */\n      0x00\n        /* \"#utility.yul\":708:714   */\n      dup1\n        /* \"#utility.yul\":757:759   */\n      0x40\n        /* \"#utility.yul\":745:754   */\n      dup4\n        /* \"#utility.yul\":736:743   */\n      dup6\n        /* \"#utility.yul\":732:755   */\n      sub\n        /* \"#utility.yul\":728:760   */\n      slt\n        /* \"#utility.yul\":725:727   */\n      iszero\n      tag_43\n      jumpi\n        /* \"#utility.yul\":763:842   */\n      tag_44\n      tag_40\n      jump\t// in\n    tag_44:\n        /* \"#utility.yul\":725:727   */\n    tag_43:\n        /* \"#utility.yul\":883:884   */\n      0x00\n        /* \"#utility.yul\":908:961   */\n      tag_45\n        /* \"#utility.yul\":953:960   */\n      dup6\n        /* \"#utility.yul\":944:950   */\n      dup3\n        /* \"#utility.yul\":933:942   */\n      dup7\n        /* \"#utility.yul\":929:951   */\n      add\n        /* \"#utility.yul\":908:961   */\n      tag_29\n      jump\t// in\n    tag_45:\n        /* \"#utility.yul\":898:961   */\n      swap3\n      pop\n        /* \"#utility.yul\":854:971   */\n      pop\n        /* \"#utility.yul\":1010:1012   */\n      0x20\n        /* \"#utility.yul\":1036:1089   */\n      tag_46\n        /* \"#utility.yul\":1081:1088   */\n      dup6\n        /* \"#utility.yul\":1072:1078   */\n      dup3\n        /* \"#utility.yul\":1061:1070   */\n      dup7\n        /* \"#utility.yul\":1057:1079   */\n      add\n        /* \"#utility.yul\":1036:1089   */\n      tag_33\n      jump\t// in\n    tag_46:\n        /* \"#utility.yul\":1026:1089   */\n      swap2\n      pop\n        /* \"#utility.yul\":981:1099   */\n      pop\n        /* \"#utility.yul\":715:1106   */\n      swap3\n      pop\n      swap3\n      swap1\n      pop\n      jump\t// out\n        /* \"#utility.yul\":1112:1476   */\n    tag_47:\n        /* \"#utility.yul\":1200:1203   */\n      0x00\n        /* \"#utility.yul\":1228:1267   */\n      tag_49\n        /* \"#utility.yul\":1261:1266   */\n      dup3\n        /* \"#utility.yul\":1228:1267   */\n      tag_50\n      jump\t// in\n    tag_49:\n        /* \"#utility.yul\":1283:1354   */\n      tag_51\n        /* \"#utility.yul\":1347:1353   */\n      dup2\n        /* \"#utility.yul\":1342:1345   */\n      dup6\n        /* \"#utility.yul\":1283:1354   */\n      tag_52\n      jump\t// in\n    tag_51:\n        /* \"#utility.yul\":1276:1354   */\n      swap4\n      pop\n        /* \"#utility.yul\":1363:1415   */\n      tag_53\n        /* \"#utility.yul\":1408:1414   */\n      dup2\n        /* \"#utility.yul\":1403:1406   */\n      dup6\n        /* \"#utility.yul\":1396:1400   */\n      0x20\n        /* \"#utility.yul\":1389:1394   */\n      dup7\n        /* \"#utility.yul\":1385:1401   */\n      add\n        /* \"#utility.yul\":1363:1415   */\n      tag_54\n      jump\t// in\n    tag_53:\n        /* \"#utility.yul\":1440:1469   */\n      tag_55\n        /* \"#utility.yul\":1462:1468   */\n      dup2\n        /* \"#utility.yul\":1440:1469   */\n      tag_56\n      jump\t// in\n    tag_55:\n        /* \"#utility.yul\":1435:1438   */\n      dup5\n        /* \"#utility.yul\":1431:1470   */\n      add\n        /* \"#utility.yul\":1424:1470   */\n      swap2\n      pop\n        /* \"#utility.yul\":1204:1476   */\n      pop\n      swap3\n      swap2\n      pop\n      pop\n      jump\t// out\n        /* \"#utility.yul\":1482:1600   */\n    tag_57:\n        /* \"#utility.yul\":1569:1593   */\n      tag_59\n        /* \"#utility.yul\":1587:1592   */\n      dup2\n        /* \"#utility.yul\":1569:1593   */\n      tag_60\n      jump\t// in\n    tag_59:\n        /* \"#utility.yul\":1564:1567   */\n      dup3\n        /* \"#utility.yul\":1557:1594   */\n      mstore\n        /* \"#utility.yul\":1547:1600   */\n      pop\n      pop\n      jump\t// out\n        /* \"#utility.yul\":1606:1919   */\n    tag_15:\n        /* \"#utility.yul\":1719:1723   */\n      0x00\n        /* \"#utility.yul\":1757:1759   */\n      0x20\n        /* \"#utility.yul\":1746:1755   */\n      dup3\n        /* \"#utility.yul\":1742:1760   */\n      add\n        /* \"#utility.yul\":1734:1760   */\n      swap1\n      pop\n        /* \"#utility.yul\":1806:1815   */\n      dup2\n        /* \"#utility.yul\":1800:1804   */\n      dup2\n        /* \"#utility.yul\":1796:1816   */\n      sub\n        /* \"#utility.yul\":1792:1793   */\n      0x00\n        /* \"#utility.yul\":1781:1790   */\n      dup4\n        /* \"#utility.yul\":1777:1794   */\n      add\n        /* \"#utility.yul\":1770:1817   */\n      mstore\n        /* \"#utility.yul\":1834:1912   */\n      tag_62\n        /* \"#utility.yul\":1907:1911   */\n      dup2\n        /* \"#utility.yul\":1898:1904   */\n      dup5\n        /* \"#utility.yul\":1834:1912   */\n      tag_47\n      jump\t// in\n    tag_62:\n        /* \"#utility.yul\":1826:1912   */\n      swap1\n      pop\n        /* \"#utility.yul\":1724:1919   */\n      swap3\n      swap2\n      pop\n      pop\n      jump\t// out\n        /* \"#utility.yul\":1925:2147   */\n    tag_20:\n        /* \"#utility.yul\":2018:2022   */\n      0x00\n        /* \"#utility.yul\":2056:2058   */\n      0x20\n        /* \"#utility.yul\":2045:2054   */\n      dup3\n        /* \"#utility.yul\":2041:2059   */\n      add\n        /* \"#utility.yul\":2033:2059   */\n      swap1\n      pop\n        /* \"#utility.yul\":2069:2140   */\n      tag_64\n        /* \"#utility.yul\":2137:2138   */\n      0x00\n        /* \"#utility.yul\":2126:2135   */\n      dup4\n        /* \"#utility.yul\":2122:2139   */\n      add\n        /* \"#utility.yul\":2113:2119   */\n      dup5\n        /* \"#utility.yul\":2069:2140   */\n      tag_57\n      jump\t// in\n    tag_64:\n        /* \"#utility.yul\":2023:2147   */\n      swap3\n      swap2\n      pop\n      pop\n      jump\t// out\n        /* \"#utility.yul\":2234:2333   */\n    tag_50:\n        /* \"#utility.yul\":2286:2292   */\n      0x00\n        /* \"#utility.yul\":2320:2325   */\n      dup2\n        /* \"#utility.yul\":2314:2326   */\n      mload\n        /* \"#utility.yul\":2304:2326   */\n      swap1\n      pop\n        /* \"#utility.yul\":2293:2333   */\n      swap2\n      swap1\n      pop\n      jump\t// out\n        /* \"#utility.yul\":2339:2508   */\n    tag_52:\n        /* \"#utility.yul\":2423:2434   */\n      0x00\n        /* \"#utility.yul\":2457:2463   */\n      dup3\n        /* \"#utility.yul\":2452:2455   */\n      dup3\n        /* \"#utility.yul\":2445:2464   */\n      mstore\n        /* \"#utility.yul\":2497:2501   */\n      0x20\n        /* \"#utility.yul\":2492:2495   */\n      dup3\n        /* \"#utility.yul\":2488:2502   */\n      add\n        /* \"#utility.yul\":2473:2502   */\n      swap1\n      pop\n        /* \"#utility.yul\":2435:2508   */\n      swap3\n      swap2\n      pop\n      pop\n      jump\t// out\n        /* \"#utility.yul\":2514:2610   */\n    tag_69:\n        /* \"#utility.yul\":2551:2558   */\n      0x00\n        /* \"#utility.yul\":2580:2604   */\n      tag_71\n        /* \"#utility.yul\":2598:2603   */\n      dup3\n        /* \"#utility.yul\":2580:2604   */\n      tag_72\n      jump\t// in\n    tag_71:\n        /* \"#utility.yul\":2569:2604   */\n      swap1\n      pop\n        /* \"#utility.yul\":2559:2610   */\n      swap2\n      swap1\n      pop\n      jump\t// out\n        /* \"#utility.yul\":2616:2742   */\n    tag_72:\n        /* \"#utility.yul\":2653:2660   */\n      0x00\n        /* \"#utility.yul\":2693:2735   */\n      0xffffffffffffffffffffffffffffffffffffffff\n        /* \"#utility.yul\":2686:2691   */\n      dup3\n        /* \"#utility.yul\":2682:2736   */\n      and\n        /* \"#utility.yul\":2671:2736   */\n      swap1\n      pop\n        /* \"#utility.yul\":2661:2742   */\n      swap2\n      swap1\n      pop\n      jump\t// out\n        /* \"#utility.yul\":2748:2825   */\n    tag_60:\n        /* \"#utility.yul\":2785:2792   */\n      0x00\n        /* \"#utility.yul\":2814:2819   */\n      dup2\n        /* \"#utility.yul\":2803:2819   */\n      swap1\n      pop\n        /* \"#utility.yul\":2793:2825   */\n      swap2\n      swap1\n      pop\n      jump\t// out\n        /* \"#utility.yul\":2831:3138   */\n    tag_54:\n        /* \"#utility.yul\":2899:2900   */\n      0x00\n        /* \"#utility.yul\":2909:3022   */\n    tag_76:\n        /* \"#utility.yul\":2923:2929   */\n      dup4\n        /* \"#utility.yul\":2920:2921   */\n      dup2\n        /* \"#utility.yul\":2917:2930   */\n      lt\n        /* \"#utility.yul\":2909:3022   */\n      iszero\n      tag_78\n      jumpi\n        /* \"#utility.yul\":3008:3009   */\n      dup1\n        /* \"#utility.yul\":3003:3006   */\n      dup3\n        /* \"#utility.yul\":2999:3010   */\n      add\n        /* \"#utility.yul\":2993:3011   */\n      mload\n        /* \"#utility.yul\":2989:2990   */\n      dup2\n        /* \"#utility.yul\":2984:2987   */\n      dup5\n        /* \"#utility.yul\":2980:2991   */\n      add\n        /* \"#utility.yul\":2973:3012   */\n      mstore\n        /* \"#utility.yul\":2945:2947   */\n      0x20\n        /* \"#utility.yul\":2942:2943   */\n      dup2\n        /* \"#utility.yul\":2938:2948   */\n      add\n        /* \"#utility.yul\":2933:2948   */\n      swap1\n      pop\n        /* \"#utility.yul\":2909:3022   */\n      jump(tag_76)\n    tag_78:\n        /* \"#utility.yul\":3040:3046   */\n      dup4\n        /* \"#utility.yul\":3037:3038   */\n      dup2\n        /* \"#utility.yul\":3034:3047   */\n      gt\n        /* \"#utility.yul\":3031:3033   */\n      iszero\n      tag_79\n      jumpi\n        /* \"#utility.yul\":3120:3121   */\n      0x00\n        /* \"#utility.yul\":3111:3117   */\n      dup5\n        /* \"#utility.yul\":3106:3109   */\n      dup5\n        /* \"#utility.yul\":3102:3118   */\n      add\n        /* \"#utility.yul\":3095:3122   */\n      mstore\n        /* \"#utility.yul\":3031:3033   */\n    tag_79:\n        /* \"#utility.yul\":2880:3138   */\n      pop\n      pop\n      pop\n      pop\n      jump\t// out\n        /* \"#utility.yul\":3144:3464   */\n    tag_23:\n        /* \"#utility.yul\":3188:3194   */\n      0x00\n        /* \"#utility.yul\":3225:3226   */\n      0x02\n        /* \"#utility.yul\":3219:3223   */\n      dup3\n        /* \"#utility.yul\":3215:3227   */\n      div\n        /* \"#utility.yul\":3205:3227   */\n      swap1\n      pop\n        /* \"#utility.yul\":3272:3273   */\n      0x01\n        /* \"#utility.yul\":3266:3270   */\n      dup3\n        /* \"#utility.yul\":3262:3274   */\n      and\n        /* \"#utility.yul\":3293:3311   */\n      dup1\n        /* \"#utility.yul\":3283:3285   */\n      tag_81\n      jumpi\n        /* \"#utility.yul\":3349:3353   */\n      0x7f\n        /* \"#utility.yul\":3341:3347   */\n      dup3\n        /* \"#utility.yul\":3337:3354   */\n      and\n        /* \"#utility.yul\":3327:3354   */\n      swap2\n      pop\n        /* \"#utility.yul\":3283:3285   */\n    tag_81:\n        /* \"#utility.yul\":3411:3413   */\n      0x20\n        /* \"#utility.yul\":3403:3409   */\n      dup3\n        /* \"#utility.yul\":3400:3414   */\n      lt\n        /* \"#utility.yul\":3380:3398   */\n      dup2\n        /* \"#utility.yul\":3377:3415   */\n      eq\n        /* \"#utility.yul\":3374:3376   */\n      iszero\n      tag_82\n      jumpi\n        /* \"#utility.yul\":3430:3448   */\n      tag_83\n      tag_84\n      jump\t// in\n    tag_83:\n        /* \"#utility.yul\":3374:3376   */\n    tag_82:\n        /* \"#utility.yul\":3195:3464   */\n      pop\n      swap2\n      swap1\n      pop\n      jump\t// out\n        /* \"#utility.yul\":3470:3650   */\n    tag_84:\n        /* \"#utility.yul\":3518:3595   */\n      0x4e487b7100000000000000000000000000000000000000000000000000000000\n        /* \"#utility.yul\":3515:3516   */\n      0x00\n        /* \"#utility.yul\":3508:3596   */\n      mstore\n        /* \"#utility.yul\":3615:3619   */\n      0x22\n        /* \"#utility.yul\":3612:3613   */\n      0x04\n        /* \"#utility.yul\":3605:3620   */\n      mstore\n        /* \"#utility.yul\":3639:3643   */\n      0x24\n        /* \"#utility.yul\":3636:3637   */\n      0x00\n        /* \"#utility.yul\":3629:3644   */\n      revert\n        /* \"#utility.yul\":3779:3896   */\n    tag_40:\n        /* \"#utility.yul\":3888:3889   */\n      0x00\n        /* \"#utility.yul\":3885:3886   */\n      dup1\n        /* \"#utility.yul\":3878:3890   */\n      revert\n        /* \"#utility.yul\":3902:4004   */\n    tag_56:\n        /* \"#utility.yul\":3943:3949   */\n      0x00\n        /* \"#utility.yul\":3994:3996   */\n      0x1f\n        /* \"#utility.yul\":3990:3997   */\n      not\n        /* \"#utility.yul\":3985:3987   */\n      0x1f\n        /* \"#utility.yul\":3978:3983   */\n      dup4\n        /* \"#utility.yul\":3974:3988   */\n      add\n        /* \"#utility.yul\":3970:3998   */\n      and\n        /* \"#utility.yul\":3960:3998   */\n      swap1\n      pop\n        /* \"#utility.yul\":3950:4004   */\n      swap2\n      swap1\n      pop\n      jump\t// out\n        /* \"#utility.yul\":4010:4132   */\n    tag_32:\n        /* \"#utility.yul\":4083:4107   */\n      tag_91\n        /* \"#utility.yul\":4101:4106   */\n      dup2\n        /* \"#utility.yul\":4083:4107   */\n      tag_69\n      jump\t// in\n    tag_91:\n        /* \"#utility.yul\":4076:4081   */\n      dup2\n        /* \"#utility.yul\":4073:4108   */\n      eq\n        /* \"#utility.yul\":4063:4065   */\n      tag_92\n      jumpi\n        /* \"#utility.yul\":4122:4123   */\n      0x00\n        /* \"#utility.yul\":4119:4120   */\n      dup1\n        /* \"#utility.yul\":4112:4124   */\n      revert\n        /* \"#utility.yul\":4063:4065   */\n    tag_92:\n        /* \"#utility.yul\":4053:4132   */\n      pop\n      jump\t// out\n        /* \"#utility.yul\":4138:4260   */\n    tag_36:\n        /* \"#utility.yul\":4211:4235   */\n      tag_94\n        /* \"#utility.yul\":4229:4234   */\n      dup2\n        /* \"#utility.yul\":4211:4235   */\n      tag_60\n      jump\t// in\n    tag_94:\n        /* \"#utility.yul\":4204:4209   */\n      dup2\n        /* \"#utility.yul\":4201:4236   */\n      eq\n        /* \"#utility.yul\":4191:4193   */\n      tag_95\n      jumpi\n        /* \"#utility.yul\":4250:4251   */\n      0x00\n        /* \"#utility.yul\":4247:4248   */\n      dup1\n        /* \"#utility.yul\":4240:4252   */\n      revert\n        /* \"#utility.yul\":4191:4193   */\n    tag_95:\n        /* \"#utility.yul\":4181:4260   */\n      pop\n      jump\t// out\n\n    auxdata: 0xa2646970667358221220781ddc188a9ff78af52867b433064a5e61199e750fef2e6fb2875e7bcb0258f264736f6c63430008060033\n}\n",
				"bytecode": {
					"linkReferences": {},
					"object": "60806040526000805534801561001457600080fd5b50610400806100246000396000f3fe608060405234801561001057600080fd5b50600436106100415760003560e01c80630fc2b111146100465780631e54cb771461006257806395ded45c14610092575b600080fd5b610060600480360381019061005b91906101d5565b6100c2565b005b61007c600480360381019061007791906101a8565b6100c6565b604051610089919061025d565b60405180910390f35b6100ac60048036038101906100a791906101a8565b610166565b6040516100b9919061027f565b60405180910390f35b5050565b600260205280600052604060002060009150905080546100e590610325565b80601f016020809104026020016040519081016040528092919081815260200182805461011190610325565b801561015e5780601f106101335761010080835404028352916020019161015e565b820191906000526020600020905b81548152906001019060200180831161014157829003601f168201915b505050505081565b60016020528060005260406000206000915090505481565b60008135905061018d8161039c565b92915050565b6000813590506101a2816103b3565b92915050565b6000602082840312156101be576101bd610386565b5b60006101cc8482850161017e565b91505092915050565b600080604083850312156101ec576101eb610386565b5b60006101fa8582860161017e565b925050602061020b85828601610193565b9150509250929050565b60006102208261029a565b61022a81856102a5565b935061023a8185602086016102f2565b6102438161038b565b840191505092915050565b610257816102e8565b82525050565b600060208201905081810360008301526102778184610215565b905092915050565b6000602082019050610294600083018461024e565b92915050565b600081519050919050565b600082825260208201905092915050565b60006102c1826102c8565b9050919050565b600073ffffffffffffffffffffffffffffffffffffffff82169050919050565b6000819050919050565b60005b838110156103105780820151818401526020810190506102f5565b8381111561031f576000848401525b50505050565b6000600282049050600182168061033d57607f821691505b6020821081141561035157610350610357565b5b50919050565b7f4e487b7100000000000000000000000000000000000000000000000000000000600052602260045260246000fd5b600080fd5b6000601f19601f8301169050919050565b6103a5816102b6565b81146103b057600080fd5b50565b6103bc816102e8565b81146103c757600080fd5b5056fea2646970667358221220781ddc188a9ff78af52867b433064a5e61199e750fef2e6fb2875e7bcb0258f264736f6c63430008060033",
					"opcodes": "PUSH1 0x80 PUSH1 0x40 MSTORE PUSH1 0x0 DUP1 SSTORE CALLVALUE DUP1 ISZERO PUSH2 0x14 JUMPI PUSH1 0x0 DUP1 REVERT JUMPDEST POP PUSH2 0x400 DUP1 PUSH2 0x24 PUSH1 0x0 CODECOPY PUSH1 0x0 RETURN INVALID PUSH1 0x80 PUSH1 0x40 MSTORE CALLVALUE DUP1 ISZERO PUSH2 0x10 JUMPI PUSH1 0x0 DUP1 REVERT JUMPDEST POP PUSH1 0x4 CALLDATASIZE LT PUSH2 0x41 JUMPI PUSH1 0x0 CALLDATALOAD PUSH1 0xE0 SHR DUP1 PUSH4 0xFC2B111 EQ PUSH2 0x46 JUMPI DUP1 PUSH4 0x1E54CB77 EQ PUSH2 0x62 JUMPI DUP1 PUSH4 0x95DED45C EQ PUSH2 0x92 JUMPI JUMPDEST PUSH1 0x0 DUP1 REVERT JUMPDEST PUSH2 0x60 PUSH1 0x4 DUP1 CALLDATASIZE SUB DUP2 ADD SWAP1 PUSH2 0x5B SWAP2 SWAP1 PUSH2 0x1D5 JUMP JUMPDEST PUSH2 0xC2 JUMP JUMPDEST STOP JUMPDEST PUSH2 0x7C PUSH1 0x4 DUP1 CALLDATASIZE SUB DUP2 ADD SWAP1 PUSH2 0x77 SWAP2 SWAP1 PUSH2 0x1A8 JUMP JUMPDEST PUSH2 0xC6 JUMP JUMPDEST PUSH1 0x40 MLOAD PUSH2 0x89 SWAP2 SWAP1 PUSH2 0x25D JUMP JUMPDEST PUSH1 0x40 MLOAD DUP1 SWAP2 SUB SWAP1 RETURN JUMPDEST PUSH2 0xAC PUSH1 0x4 DUP1 CALLDATASIZE SUB DUP2 ADD SWAP1 PUSH2 0xA7 SWAP2 SWAP1 PUSH2 0x1A8 JUMP JUMPDEST PUSH2 0x166 JUMP JUMPDEST PUSH1 0x40 MLOAD PUSH2 0xB9 SWAP2 SWAP1 PUSH2 0x27F JUMP JUMPDEST PUSH1 0x40 MLOAD DUP1 SWAP2 SUB SWAP1 RETURN JUMPDEST POP POP JUMP JUMPDEST PUSH1 0x2 PUSH1 0x20 MSTORE DUP1 PUSH1 0x0 MSTORE PUSH1 0x40 PUSH1 0x0 KECCAK256 PUSH1 0x0 SWAP2 POP SWAP1 POP DUP1 SLOAD PUSH2 0xE5 SWAP1 PUSH2 0x325 JUMP JUMPDEST DUP1 PUSH1 0x1F ADD PUSH1 0x20 DUP1 SWAP2 DIV MUL PUSH1 0x20 ADD PUSH1 0x40 MLOAD SWAP1 DUP2 ADD PUSH1 0x40 MSTORE DUP1 SWAP3 SWAP2 SWAP1 DUP2 DUP2 MSTORE PUSH1 0x20 ADD DUP3 DUP1 SLOAD PUSH2 0x111 SWAP1 PUSH2 0x325 JUMP JUMPDEST DUP1 ISZERO PUSH2 0x15E JUMPI DUP1 PUSH1 0x1F LT PUSH2 0x133 JUMPI PUSH2 0x100 DUP1 DUP4 SLOAD DIV MUL DUP4 MSTORE SWAP2 PUSH1 0x20 ADD SWAP2 PUSH2 0x15E JUMP JUMPDEST DUP3 ADD SWAP2 SWAP1 PUSH1 0x0 MSTORE PUSH1 0x20 PUSH1 0x0 KECCAK256 SWAP1 JUMPDEST DUP2 SLOAD DUP2 MSTORE SWAP1 PUSH1 0x1 ADD SWAP1 PUSH1 0x20 ADD DUP1 DUP4 GT PUSH2 0x141 JUMPI DUP3 SWAP1 SUB PUSH1 0x1F AND DUP3 ADD SWAP2 JUMPDEST POP POP POP POP POP DUP2 JUMP JUMPDEST PUSH1 0x1 PUSH1 0x20 MSTORE DUP1 PUSH1 0x0 MSTORE PUSH1 0x40 PUSH1 0x0 KECCAK256 PUSH1 0x0 SWAP2 POP SWAP1 POP SLOAD DUP2 JUMP JUMPDEST PUSH1 0x0 DUP2 CALLDATALOAD SWAP1 POP PUSH2 0x18D DUP2 PUSH2 0x39C JUMP JUMPDEST SWAP3 SWAP2 POP POP JUMP JUMPDEST PUSH1 0x0 DUP2 CALLDATALOAD SWAP1 POP PUSH2 0x1A2 DUP2 PUSH2 0x3B3 JUMP JUMPDEST SWAP3 SWAP2 POP POP JUMP JUMPDEST PUSH1 0x0 PUSH1 0x20 DUP3 DUP5 SUB SLT ISZERO PUSH2 0x1BE JUMPI PUSH2 0x1BD PUSH2 0x386 JUMP JUMPDEST JUMPDEST PUSH1 0x0 PUSH2 0x1CC DUP5 DUP3 DUP6 ADD PUSH2 0x17E JUMP JUMPDEST SWAP2 POP POP SWAP3 SWAP2 POP POP JUMP JUMPDEST PUSH1 0x0 DUP1 PUSH1 0x40 DUP4 DUP6 SUB SLT ISZERO PUSH2 0x1EC JUMPI PUSH2 0x1EB PUSH2 0x386 JUMP JUMPDEST JUMPDEST PUSH1 0x0 PUSH2 0x1FA DUP6 DUP3 DUP7 ADD PUSH2 0x17E JUMP JUMPDEST SWAP3 POP POP PUSH1 0x20 PUSH2 0x20B DUP6 DUP3 DUP7 ADD PUSH2 0x193 JUMP JUMPDEST SWAP2 POP POP SWAP3 POP SWAP3 SWAP1 POP JUMP JUMPDEST PUSH1 0x0 PUSH2 0x220 DUP3 PUSH2 0x29A JUMP JUMPDEST PUSH2 0x22A DUP2 DUP6 PUSH2 0x2A5 JUMP JUMPDEST SWAP4 POP PUSH2 0x23A DUP2 DUP6 PUSH1 0x20 DUP7 ADD PUSH2 0x2F2 JUMP JUMPDEST PUSH2 0x243 DUP2 PUSH2 0x38B JUMP JUMPDEST DUP5 ADD SWAP2 POP POP SWAP3 SWAP2 POP POP JUMP JUMPDEST PUSH2 0x257 DUP2 PUSH2 0x2E8 JUMP JUMPDEST DUP3 MSTORE POP POP JUMP JUMPDEST PUSH1 0x0 PUSH1 0x20 DUP3 ADD SWAP1 POP DUP2 DUP2 SUB PUSH1 0x0 DUP4 ADD MSTORE PUSH2 0x277 DUP2 DUP5 PUSH2 0x215 JUMP JUMPDEST SWAP1 POP SWAP3 SWAP2 POP POP JUMP JUMPDEST PUSH1 0x0 PUSH1 0x20 DUP3 ADD SWAP1 POP PUSH2 0x294 PUSH1 0x0 DUP4 ADD DUP5 PUSH2 0x24E JUMP JUMPDEST SWAP3 SWAP2 POP POP JUMP JUMPDEST PUSH1 0x0 DUP2 MLOAD SWAP1 POP SWAP2 SWAP1 POP JUMP JUMPDEST PUSH1 0x0 DUP3 DUP3 MSTORE PUSH1 0x20 DUP3 ADD SWAP1 POP SWAP3 SWAP2 POP POP JUMP JUMPDEST PUSH1 0x0 PUSH2 0x2C1 DUP3 PUSH2 0x2C8 JUMP JUMPDEST SWAP1 POP SWAP2 SWAP1 POP JUMP JUMPDEST PUSH1 0x0 PUSH20 0xFFFFFFFFFFFFFFFFFFFFFFFFFFFFFFFFFFFFFFFF DUP3 AND SWAP1 POP SWAP2 SWAP1 POP JUMP JUMPDEST PUSH1 0x0 DUP2 SWAP1 POP SWAP2 SWAP1 POP JUMP JUMPDEST PUSH1 0x0 JUMPDEST DUP4 DUP2 LT ISZERO PUSH2 0x310 JUMPI DUP1 DUP3 ADD MLOAD DUP2 DUP5 ADD MSTORE PUSH1 0x20 DUP2 ADD SWAP1 POP PUSH2 0x2F5 JUMP JUMPDEST DUP4 DUP2 GT ISZERO PUSH2 0x31F JUMPI PUSH1 0x0 DUP5 DUP5 ADD MSTORE JUMPDEST POP POP POP POP JUMP JUMPDEST PUSH1 0x0 PUSH1 0x2 DUP3 DIV SWAP1 POP PUSH1 0x1 DUP3 AND DUP1 PUSH2 0x33D JUMPI PUSH1 0x7F DUP3 AND SWAP2 POP JUMPDEST PUSH1 0x20 DUP3 LT DUP2 EQ ISZERO PUSH2 0x351 JUMPI PUSH2 0x350 PUSH2 0x357 JUMP JUMPDEST JUMPDEST POP SWAP2 SWAP1 POP JUMP JUMPDEST PUSH32 0x4E487B7100000000000000000000000000000000000000000000000000000000 PUSH1 0x0 MSTORE PUSH1 0x22 PUSH1 0x4 MSTORE PUSH1 0x24 PUSH1 0x0 REVERT JUMPDEST PUSH1 0x0 DUP1 REVERT JUMPDEST PUSH1 0x0 PUSH1 0x1F NOT PUSH1 0x1F DUP4 ADD AND SWAP1 POP SWAP2 SWAP1 POP JUMP JUMPDEST PUSH2 0x3A5 DUP2 PUSH2 0x2B6 JUMP JUMPDEST DUP2 EQ PUSH2 0x3B0 JUMPI PUSH1 0x0 DUP1 REVERT JUMPDEST POP JUMP JUMPDEST PUSH2 0x3BC DUP2 PUSH2 0x2E8 JUMP JUMPDEST DUP2 EQ PUSH2 0x3C7 JUMPI PUSH1 0x0 DUP1 REVERT JUMPDEST POP JUMP INVALID LOG2 PUSH5 0x6970667358 0x22 SLT KECCAK256 PUSH25 0x1DDC188A9FF78AF52867B433064A5E61199E750FEF2E6FB287 0x5E PUSH28 0xCB0258F264736F6C6343000806003300000000000000000000000000 "
				},
				"gasEstimates": {
					"creation": {
						"codeDepositCost": "204800",
						"executionCost": "5251",
						"totalCost": "210051"
					},
					"external": {
						"allTokens(address)": "2836",
						"publicDepositERC20(address,uint256)": "606",
						"slabs(address)": "infinite"
					}
				},
				"methodIdentifiers": {
					"allTokens(address)": "95ded45c",
					"publicDepositERC20(address,uint256)": "0fc2b111",
					"slabs(address)": "1e54cb77"
				}
			},
			"storageLayout": {
				"storage": [
					{
						"astId": 83,
						"contract": "MyTask/MyERC20Token.sol:TokenDeposit",
						"label": "count",
						"offset": 0,
						"slot": "0",
						"type": "t_uint256"
					},
					{
						"astId": 87,
						"contract": "MyTask/MyERC20Token.sol:TokenDeposit",
						"label": "allTokens",
						"offset": 0,
						"slot": "1",
						"type": "t_mapping(t_address,t_uint256)"
					},
					{
						"astId": 91,
						"contract": "MyTask/MyERC20Token.sol:TokenDeposit",
						"label": "slabs",
						"offset": 0,
						"slot": "2",
						"type": "t_mapping(t_address,t_string_storage)"
					}
				],
				"types": {
					"t_address": {
						"encoding": "inplace",
						"label": "address",
						"numberOfBytes": "20"
					},
					"t_mapping(t_address,t_string_storage)": {
						"encoding": "mapping",
						"key": "t_address",
						"label": "mapping(address => string)",
						"numberOfBytes": "32",
						"value": "t_string_storage"
					},
					"t_mapping(t_address,t_uint256)": {
						"encoding": "mapping",
						"key": "t_address",
						"label": "mapping(address => uint256)",
						"numberOfBytes": "32",
						"value": "t_uint256"
					},
					"t_string_storage": {
						"encoding": "bytes",
						"label": "string",
						"numberOfBytes": "32"
					},
					"t_uint256": {
						"encoding": "inplace",
						"label": "uint256",
						"numberOfBytes": "32"
					}
				}
			},
			"userdoc": {
				"kind": "user",
				"methods": {},
				"version": 1
			}
		}
	}
}